{
  "address": "0x01E0A6bB384C65DF84746fA6D95F3e5f774Fe8d1",
  "abi": [
    {
      "inputs": [],
      "stateMutability": "nonpayable",
      "type": "constructor"
    },
    {
      "inputs": [
        {
          "internalType": "address",
          "name": "sender",
          "type": "address"
        },
        {
          "internalType": "uint256",
          "name": "tokenId",
          "type": "uint256"
        },
        {
          "internalType": "address",
          "name": "owner",
          "type": "address"
        }
      ],
      "name": "ERC721IncorrectOwner",
      "type": "error"
    },
    {
      "inputs": [
        {
          "internalType": "address",
          "name": "operator",
          "type": "address"
        },
        {
          "internalType": "uint256",
          "name": "tokenId",
          "type": "uint256"
        }
      ],
      "name": "ERC721InsufficientApproval",
      "type": "error"
    },
    {
      "inputs": [
        {
          "internalType": "address",
          "name": "approver",
          "type": "address"
        }
      ],
      "name": "ERC721InvalidApprover",
      "type": "error"
    },
    {
      "inputs": [
        {
          "internalType": "address",
          "name": "operator",
          "type": "address"
        }
      ],
      "name": "ERC721InvalidOperator",
      "type": "error"
    },
    {
      "inputs": [
        {
          "internalType": "address",
          "name": "owner",
          "type": "address"
        }
      ],
      "name": "ERC721InvalidOwner",
      "type": "error"
    },
    {
      "inputs": [
        {
          "internalType": "address",
          "name": "receiver",
          "type": "address"
        }
      ],
      "name": "ERC721InvalidReceiver",
      "type": "error"
    },
    {
      "inputs": [
        {
          "internalType": "address",
          "name": "sender",
          "type": "address"
        }
      ],
      "name": "ERC721InvalidSender",
      "type": "error"
    },
    {
      "inputs": [
        {
          "internalType": "uint256",
          "name": "tokenId",
          "type": "uint256"
        }
      ],
      "name": "ERC721NonexistentToken",
      "type": "error"
    },
    {
      "inputs": [
        {
          "internalType": "address",
          "name": "owner",
          "type": "address"
        }
      ],
      "name": "OwnableInvalidOwner",
      "type": "error"
    },
    {
      "inputs": [
        {
          "internalType": "address",
          "name": "account",
          "type": "address"
        }
      ],
      "name": "OwnableUnauthorizedAccount",
      "type": "error"
    },
    {
      "inputs": [],
      "name": "ReentrancyGuardReentrantCall",
      "type": "error"
    },
    {
      "anonymous": false,
      "inputs": [
        {
          "indexed": true,
          "internalType": "address",
          "name": "owner",
          "type": "address"
        },
        {
          "indexed": true,
          "internalType": "address",
          "name": "approved",
          "type": "address"
        },
        {
          "indexed": true,
          "internalType": "uint256",
          "name": "tokenId",
          "type": "uint256"
        }
      ],
      "name": "Approval",
      "type": "event"
    },
    {
      "anonymous": false,
      "inputs": [
        {
          "indexed": true,
          "internalType": "address",
          "name": "owner",
          "type": "address"
        },
        {
          "indexed": true,
          "internalType": "address",
          "name": "operator",
          "type": "address"
        },
        {
          "indexed": false,
          "internalType": "bool",
          "name": "approved",
          "type": "bool"
        }
      ],
      "name": "ApprovalForAll",
      "type": "event"
    },
    {
      "anonymous": false,
      "inputs": [
        {
          "indexed": false,
          "internalType": "uint256",
          "name": "_fromTokenId",
          "type": "uint256"
        },
        {
          "indexed": false,
          "internalType": "uint256",
          "name": "_toTokenId",
          "type": "uint256"
        }
      ],
      "name": "BatchMetadataUpdate",
      "type": "event"
    },
    {
      "anonymous": false,
      "inputs": [
        {
          "indexed": false,
          "internalType": "uint256[]",
          "name": "tokenIds",
          "type": "uint256[]"
        },
        {
          "indexed": true,
          "internalType": "address",
          "name": "seller",
          "type": "address"
        }
      ],
      "name": "ListingsCancelled",
      "type": "event"
    },
    {
      "anonymous": false,
      "inputs": [
        {
          "indexed": false,
          "internalType": "uint256",
          "name": "_tokenId",
          "type": "uint256"
        }
      ],
      "name": "MetadataUpdate",
      "type": "event"
    },
    {
      "anonymous": false,
      "inputs": [
        {
          "indexed": true,
          "internalType": "address",
          "name": "previousOwner",
          "type": "address"
        },
        {
          "indexed": true,
          "internalType": "address",
          "name": "newOwner",
          "type": "address"
        }
      ],
      "name": "OwnershipTransferred",
      "type": "event"
    },
    {
      "anonymous": false,
      "inputs": [
        {
          "indexed": true,
          "internalType": "address",
          "name": "from",
          "type": "address"
        },
        {
          "indexed": true,
          "internalType": "address",
          "name": "to",
          "type": "address"
        },
        {
          "indexed": true,
          "internalType": "uint256",
          "name": "tokenId",
          "type": "uint256"
        }
      ],
      "name": "Transfer",
      "type": "event"
    },
    {
      "anonymous": false,
      "inputs": [
        {
          "indexed": true,
          "internalType": "uint256",
          "name": "tokenId",
          "type": "uint256"
        },
        {
          "indexed": true,
          "internalType": "address",
          "name": "owner",
          "type": "address"
        },
        {
          "indexed": false,
          "internalType": "enum FruitTreeNFT.TreeType",
          "name": "treeType",
          "type": "uint8"
        },
        {
          "indexed": false,
          "internalType": "uint256",
          "name": "price",
          "type": "uint256"
        }
      ],
      "name": "TreeMinted",
      "type": "event"
    },
    {
      "anonymous": false,
      "inputs": [
        {
          "indexed": false,
          "internalType": "uint256[]",
          "name": "tokenIds",
          "type": "uint256[]"
        },
        {
          "indexed": true,
          "internalType": "address",
          "name": "seller",
          "type": "address"
        }
      ],
      "name": "TreesListed",
      "type": "event"
    },
    {
      "anonymous": false,
      "inputs": [
        {
          "indexed": false,
          "internalType": "uint256[]",
          "name": "tokenIds",
          "type": "uint256[]"
        },
        {
          "indexed": true,
          "internalType": "address",
          "name": "seller",
          "type": "address"
        },
        {
          "indexed": true,
          "internalType": "address",
          "name": "buyer",
          "type": "address"
        },
        {
          "indexed": false,
          "internalType": "uint256",
          "name": "totalPrice",
          "type": "uint256"
        }
      ],
      "name": "TreesSold",
      "type": "event"
    },
    {
      "inputs": [
        {
          "internalType": "uint256",
          "name": "",
          "type": "uint256"
        }
      ],
      "name": "activeListings",
      "outputs": [
        {
          "internalType": "uint256",
          "name": "",
          "type": "uint256"
        }
      ],
      "stateMutability": "view",
      "type": "function"
    },
    {
      "inputs": [
        {
          "internalType": "address",
          "name": "to",
          "type": "address"
        },
        {
          "internalType": "uint256",
          "name": "tokenId",
          "type": "uint256"
        }
      ],
      "name": "approve",
      "outputs": [],
      "stateMutability": "nonpayable",
      "type": "function"
    },
    {
      "inputs": [
        {
          "internalType": "address",
          "name": "owner",
          "type": "address"
        }
      ],
      "name": "balanceOf",
      "outputs": [
        {
          "internalType": "uint256",
          "name": "",
          "type": "uint256"
        }
      ],
      "stateMutability": "view",
      "type": "function"
    },
    {
      "inputs": [
        {
          "internalType": "address",
          "name": "seller",
          "type": "address"
        },
        {
          "internalType": "enum FruitTreeNFT.TreeType",
          "name": "treeType",
          "type": "uint8"
        },
        {
          "internalType": "uint256",
          "name": "quantity",
          "type": "uint256"
        }
      ],
      "name": "buyTreesFromSeller",
      "outputs": [],
      "stateMutability": "payable",
      "type": "function"
    },
    {
      "inputs": [
        {
          "internalType": "uint256[]",
          "name": "tokenIds",
          "type": "uint256[]"
        }
      ],
      "name": "cancelListings",
      "outputs": [],
      "stateMutability": "nonpayable",
      "type": "function"
    },
    {
      "inputs": [],
      "name": "emergencyWithdraw",
      "outputs": [],
      "stateMutability": "nonpayable",
      "type": "function"
    },
    {
      "inputs": [],
      "name": "fundContract",
      "outputs": [],
      "stateMutability": "payable",
      "type": "function"
    },
    {
      "inputs": [],
      "name": "getAllSellersWithListings",
      "outputs": [
        {
          "internalType": "address[]",
          "name": "sellers",
          "type": "address[]"
        }
      ],
      "stateMutability": "view",
      "type": "function"
    },
    {
      "inputs": [],
      "name": "getAllTreeTypes",
      "outputs": [
        {
          "internalType": "uint8[]",
          "name": "treeTypes",
          "type": "uint8[]"
        },
        {
          "internalType": "string[]",
          "name": "names",
          "type": "string[]"
        },
        {
          "internalType": "uint256[]",
          "name": "basePrices",
          "type": "uint256[]"
        },
        {
          "internalType": "uint256[]",
          "name": "currentPrices",
          "type": "uint256[]"
        },
        {
          "internalType": "uint256[]",
          "name": "baseAppreciations",
          "type": "uint256[]"
        },
        {
          "internalType": "uint256[]",
          "name": "produceAppreciations",
          "type": "uint256[]"
        }
      ],
      "stateMutability": "view",
      "type": "function"
    },
    {
      "inputs": [
        {
          "internalType": "uint256",
          "name": "tokenId",
          "type": "uint256"
        }
      ],
      "name": "getApproved",
      "outputs": [
        {
          "internalType": "address",
          "name": "",
          "type": "address"
        }
      ],
      "stateMutability": "view",
      "type": "function"
    },
    {
      "inputs": [
        {
          "internalType": "enum FruitTreeNFT.TreeType",
          "name": "_treeType",
          "type": "uint8"
        }
      ],
      "name": "getCurrentTreePrice",
      "outputs": [
        {
          "internalType": "uint256",
          "name": "",
          "type": "uint256"
        }
      ],
      "stateMutability": "view",
      "type": "function"
    },
    {
      "inputs": [],
      "name": "getMarketplaceGroupedData",
      "outputs": [
        {
          "components": [
            {
              "internalType": "address",
              "name": "seller",
              "type": "address"
            },
            {
              "internalType": "enum FruitTreeNFT.TreeType",
              "name": "treeType",
              "type": "uint8"
            },
            {
              "internalType": "uint256",
              "name": "quantity",
              "type": "uint256"
            },
            {
              "internalType": "uint256",
              "name": "averagePrice",
              "type": "uint256"
            },
            {
              "internalType": "uint256[]",
              "name": "tokenIds",
              "type": "uint256[]"
            }
          ],
          "internalType": "struct FruitTreeNFT.MarketplaceGroup[]",
          "name": "groups",
          "type": "tuple[]"
        }
      ],
      "stateMutability": "view",
      "type": "function"
    },
    {
      "inputs": [
        {
          "internalType": "address",
          "name": "owner",
          "type": "address"
        }
      ],
      "name": "getOwnerTreesByType",
      "outputs": [
        {
          "internalType": "enum FruitTreeNFT.TreeType[]",
          "name": "treeTypes",
          "type": "uint8[]"
        },
        {
          "internalType": "uint256[]",
          "name": "quantities",
          "type": "uint256[]"
        },
        {
          "internalType": "uint256[][]",
          "name": "tokenIdsByType",
          "type": "uint256[][]"
        },
        {
          "internalType": "uint256[][]",
          "name": "valuesByType",
          "type": "uint256[][]"
        }
      ],
      "stateMutability": "view",
      "type": "function"
    },
    {
      "inputs": [
        {
          "internalType": "address",
          "name": "seller",
          "type": "address"
        }
      ],
      "name": "getSellerListingsSummary",
      "outputs": [
        {
          "components": [
            {
              "internalType": "enum FruitTreeNFT.TreeType",
              "name": "treeType",
              "type": "uint8"
            },
            {
              "internalType": "uint256",
              "name": "quantity",
              "type": "uint256"
            },
            {
              "internalType": "uint256",
              "name": "averagePrice",
              "type": "uint256"
            }
          ],
          "internalType": "struct FruitTreeNFT.SellerSummary[]",
          "name": "summary",
          "type": "tuple[]"
        }
      ],
      "stateMutability": "view",
      "type": "function"
    },
    {
      "inputs": [
        {
          "internalType": "address",
          "name": "seller",
          "type": "address"
        },
        {
          "internalType": "enum FruitTreeNFT.TreeType",
          "name": "treeType",
          "type": "uint8"
        }
      ],
      "name": "getSellerTreesByType",
      "outputs": [
        {
          "internalType": "uint256[]",
          "name": "tokenIds",
          "type": "uint256[]"
        },
        {
          "internalType": "uint256[]",
          "name": "prices",
          "type": "uint256[]"
        },
        {
          "internalType": "uint256[]",
          "name": "listingTimes",
          "type": "uint256[]"
        }
      ],
      "stateMutability": "view",
      "type": "function"
    },
    {
      "inputs": [
        {
          "internalType": "uint256",
          "name": "tokenId",
          "type": "uint256"
        }
      ],
      "name": "getTreeDetails",
      "outputs": [
        {
          "internalType": "string",
          "name": "treeName",
          "type": "string"
        },
        {
          "internalType": "uint256",
          "name": "currentValue",
          "type": "uint256"
        },
        {
          "internalType": "uint256",
          "name": "mintTime",
          "type": "uint256"
        },
        {
          "internalType": "address",
          "name": "treeOwner",
          "type": "address"
        }
      ],
      "stateMutability": "view",
      "type": "function"
    },
    {
      "inputs": [
        {
          "internalType": "address",
          "name": "_owner",
          "type": "address"
        }
      ],
      "name": "getTreeDetailsByOwner",
      "outputs": [
        {
          "internalType": "uint256[]",
          "name": "tokenIds",
          "type": "uint256[]"
        },
        {
          "internalType": "string[]",
          "name": "treeNames",
          "type": "string[]"
        },
        {
          "internalType": "uint256[]",
          "name": "currentValues",
          "type": "uint256[]"
        },
        {
          "internalType": "uint256[]",
          "name": "mintTimes",
          "type": "uint256[]"
        }
      ],
      "stateMutability": "view",
      "type": "function"
    },
    {
      "inputs": [
        {
          "internalType": "enum FruitTreeNFT.TreeType",
          "name": "_treeType",
          "type": "uint8"
        }
      ],
      "name": "getTreeTypeInfo",
      "outputs": [
        {
          "components": [
            {
              "internalType": "string",
              "name": "name",
              "type": "string"
            },
            {
              "internalType": "uint256",
              "name": "basePrice",
              "type": "uint256"
            },
            {
              "internalType": "uint256",
              "name": "baseAppreciation",
              "type": "uint256"
            },
            {
              "internalType": "uint256",
              "name": "produceAppreciation",
              "type": "uint256"
            }
          ],
          "internalType": "struct FruitTreeNFT.TreeInfo",
          "name": "",
          "type": "tuple"
        }
      ],
      "stateMutability": "view",
      "type": "function"
    },
    {
      "inputs": [
        {
          "internalType": "uint256",
          "name": "tokenId",
          "type": "uint256"
        }
      ],
      "name": "getTreeValue",
      "outputs": [
        {
          "internalType": "uint256",
          "name": "",
          "type": "uint256"
        }
      ],
      "stateMutability": "view",
      "type": "function"
    },
    {
      "inputs": [
        {
          "internalType": "address",
          "name": "",
          "type": "address"
        }
      ],
      "name": "hasActiveListings",
      "outputs": [
        {
          "internalType": "bool",
          "name": "",
          "type": "bool"
        }
      ],
      "stateMutability": "view",
      "type": "function"
    },
    {
      "inputs": [
        {
          "internalType": "address",
          "name": "owner",
          "type": "address"
        },
        {
          "internalType": "address",
          "name": "operator",
          "type": "address"
        }
      ],
      "name": "isApprovedForAll",
      "outputs": [
        {
          "internalType": "bool",
          "name": "",
          "type": "bool"
        }
      ],
      "stateMutability": "view",
      "type": "function"
    },
    {
      "inputs": [
        {
          "internalType": "uint256",
          "name": "",
          "type": "uint256"
        }
      ],
      "name": "isListed",
      "outputs": [
        {
          "internalType": "bool",
          "name": "",
          "type": "bool"
        }
      ],
      "stateMutability": "view",
      "type": "function"
    },
    {
      "inputs": [
        {
          "internalType": "uint256[]",
          "name": "tokenIds",
          "type": "uint256[]"
        }
      ],
      "name": "listTreesForSale",
      "outputs": [],
      "stateMutability": "nonpayable",
      "type": "function"
    },
    {
      "inputs": [
        {
          "internalType": "uint256",
          "name": "",
          "type": "uint256"
        }
      ],
      "name": "listings",
      "outputs": [
        {
          "internalType": "uint256",
          "name": "tokenId",
          "type": "uint256"
        },
        {
          "internalType": "address",
          "name": "seller",
          "type": "address"
        },
        {
          "internalType": "uint256",
          "name": "listingTime",
          "type": "uint256"
        },
        {
          "internalType": "uint256",
          "name": "price",
          "type": "uint256"
        },
        {
          "internalType": "bool",
          "name": "isActive",
          "type": "bool"
        }
      ],
      "stateMutability": "view",
      "type": "function"
    },
    {
      "inputs": [
        {
          "internalType": "enum FruitTreeNFT.TreeType",
          "name": "_treeType",
          "type": "uint8"
        },
        {
          "internalType": "string",
          "name": "tokenURI",
          "type": "string"
        }
      ],
      "name": "mintTree",
      "outputs": [],
      "stateMutability": "payable",
      "type": "function"
    },
    {
      "inputs": [],
      "name": "name",
      "outputs": [
        {
          "internalType": "string",
          "name": "",
          "type": "string"
        }
      ],
      "stateMutability": "view",
      "type": "function"
    },
    {
      "inputs": [],
      "name": "nextTokenId",
      "outputs": [
        {
          "internalType": "uint256",
          "name": "",
          "type": "uint256"
        }
      ],
      "stateMutability": "view",
      "type": "function"
    },
    {
      "inputs": [],
      "name": "owner",
      "outputs": [
        {
          "internalType": "address",
          "name": "",
          "type": "address"
        }
      ],
      "stateMutability": "view",
      "type": "function"
    },
    {
      "inputs": [
        {
          "internalType": "uint256",
          "name": "tokenId",
          "type": "uint256"
        }
      ],
      "name": "ownerOf",
      "outputs": [
        {
          "internalType": "address",
          "name": "",
          "type": "address"
        }
      ],
      "stateMutability": "view",
      "type": "function"
    },
    {
      "inputs": [
        {
          "internalType": "address",
          "name": "",
          "type": "address"
        }
      ],
      "name": "ownerTreeCount",
      "outputs": [
        {
          "internalType": "uint256",
          "name": "",
          "type": "uint256"
        }
      ],
      "stateMutability": "view",
      "type": "function"
    },
    {
      "inputs": [],
      "name": "renounceOwnership",
      "outputs": [],
      "stateMutability": "nonpayable",
      "type": "function"
    },
    {
      "inputs": [
        {
          "internalType": "address",
          "name": "from",
          "type": "address"
        },
        {
          "internalType": "address",
          "name": "to",
          "type": "address"
        },
        {
          "internalType": "uint256",
          "name": "tokenId",
          "type": "uint256"
        }
      ],
      "name": "safeTransferFrom",
      "outputs": [],
      "stateMutability": "nonpayable",
      "type": "function"
    },
    {
      "inputs": [
        {
          "internalType": "address",
          "name": "from",
          "type": "address"
        },
        {
          "internalType": "address",
          "name": "to",
          "type": "address"
        },
        {
          "internalType": "uint256",
          "name": "tokenId",
          "type": "uint256"
        },
        {
          "internalType": "bytes",
          "name": "data",
          "type": "bytes"
        }
      ],
      "name": "safeTransferFrom",
      "outputs": [],
      "stateMutability": "nonpayable",
      "type": "function"
    },
    {
      "inputs": [
        {
          "internalType": "address",
          "name": "",
          "type": "address"
        },
        {
          "internalType": "uint256",
          "name": "",
          "type": "uint256"
        }
      ],
      "name": "sellerActiveTreeTypes",
      "outputs": [
        {
          "internalType": "enum FruitTreeNFT.TreeType",
          "name": "",
          "type": "uint8"
        }
      ],
      "stateMutability": "view",
      "type": "function"
    },
    {
      "inputs": [
        {
          "internalType": "address",
          "name": "",
          "type": "address"
        },
        {
          "internalType": "enum FruitTreeNFT.TreeType",
          "name": "",
          "type": "uint8"
        },
        {
          "internalType": "uint256",
          "name": "",
          "type": "uint256"
        }
      ],
      "name": "sellerTreesByType",
      "outputs": [
        {
          "internalType": "uint256",
          "name": "",
          "type": "uint256"
        }
      ],
      "stateMutability": "view",
      "type": "function"
    },
    {
      "inputs": [
        {
          "internalType": "address",
          "name": "operator",
          "type": "address"
        },
        {
          "internalType": "bool",
          "name": "approved",
          "type": "bool"
        }
      ],
      "name": "setApprovalForAll",
      "outputs": [],
      "stateMutability": "nonpayable",
      "type": "function"
    },
    {
      "inputs": [
        {
          "internalType": "bytes4",
          "name": "interfaceId",
          "type": "bytes4"
        }
      ],
      "name": "supportsInterface",
      "outputs": [
        {
          "internalType": "bool",
          "name": "",
          "type": "bool"
        }
      ],
      "stateMutability": "view",
      "type": "function"
    },
    {
      "inputs": [],
      "name": "symbol",
      "outputs": [
        {
          "internalType": "string",
          "name": "",
          "type": "string"
        }
      ],
      "stateMutability": "view",
      "type": "function"
    },
    {
      "inputs": [
        {
          "internalType": "uint256",
          "name": "tokenId",
          "type": "uint256"
        }
      ],
      "name": "tokenURI",
      "outputs": [
        {
          "internalType": "string",
          "name": "",
          "type": "string"
        }
      ],
      "stateMutability": "view",
      "type": "function"
    },
    {
      "inputs": [
        {
          "internalType": "address",
          "name": "from",
          "type": "address"
        },
        {
          "internalType": "address",
          "name": "to",
          "type": "address"
        },
        {
          "internalType": "uint256",
          "name": "tokenId",
          "type": "uint256"
        }
      ],
      "name": "transferFrom",
      "outputs": [],
      "stateMutability": "nonpayable",
      "type": "function"
    },
    {
      "inputs": [
        {
          "internalType": "address",
          "name": "newOwner",
          "type": "address"
        }
      ],
      "name": "transferOwnership",
      "outputs": [],
      "stateMutability": "nonpayable",
      "type": "function"
    },
    {
      "inputs": [
        {
          "internalType": "enum FruitTreeNFT.TreeType",
          "name": "",
          "type": "uint8"
        }
      ],
      "name": "treeTypeInfo",
      "outputs": [
        {
          "internalType": "string",
          "name": "name",
          "type": "string"
        },
        {
          "internalType": "uint256",
          "name": "basePrice",
          "type": "uint256"
        },
        {
          "internalType": "uint256",
          "name": "baseAppreciation",
          "type": "uint256"
        },
        {
          "internalType": "uint256",
          "name": "produceAppreciation",
          "type": "uint256"
        }
      ],
      "stateMutability": "view",
      "type": "function"
    },
    {
      "inputs": [
        {
          "internalType": "uint256",
          "name": "",
          "type": "uint256"
        }
      ],
      "name": "trees",
      "outputs": [
        {
          "internalType": "enum FruitTreeNFT.TreeType",
          "name": "treeType",
          "type": "uint8"
        },
        {
          "internalType": "uint256",
          "name": "mintTime",
          "type": "uint256"
        },
        {
          "internalType": "uint256",
          "name": "initialPrice",
          "type": "uint256"
        },
        {
          "internalType": "address",
          "name": "owner",
          "type": "address"
        }
      ],
      "stateMutability": "view",
      "type": "function"
    },
    {
      "inputs": [
        {
          "internalType": "enum FruitTreeNFT.TreeType",
          "name": "_treeType",
          "type": "uint8"
        },
        {
          "internalType": "string",
          "name": "_name",
          "type": "string"
        },
        {
          "internalType": "uint256",
          "name": "_basePrice",
          "type": "uint256"
        },
        {
          "internalType": "uint256",
          "name": "_baseAppreciation",
          "type": "uint256"
        },
        {
          "internalType": "uint256",
          "name": "_produceAppreciation",
          "type": "uint256"
        }
      ],
      "name": "updateTreeTypeInfo",
      "outputs": [],
      "stateMutability": "nonpayable",
      "type": "function"
    },
    {
      "inputs": [],
      "name": "withdrawContractFunds",
      "outputs": [],
      "stateMutability": "nonpayable",
      "type": "function"
    },
    {
      "stateMutability": "payable",
      "type": "receive"
    }
  ],
  "transactionHash": "0x40d2106024dfea9fdfd1b24bc9ded182b9698797ffe6159e98f222337718f5e9",
  "args": [],
  "numDeployments": 7,
  "solcInputHash": "d81eb21c06792b0726f11be92bdec62b",
  "bytecode": "0x608060405260016009553480156200001657600080fd5b50336040518060400160405280600c81526020016b119c9d5a5d151c995953919560a21b81525060405180604001604052806005815260200164465452454560d81b81525081600090816200006c919062000527565b5060016200007b828262000527565b5050506001600160a01b038116620000ad57604051631e4fbdf760e01b81526000600482015260240160405180910390fd5b620000b88162000430565b5060016008556040805160c081018252600a60808201818152694d616e676f205472656560b01b60a0840152825266b1a2bc2ec50000602080840191909152600593830193909352600360608301526000805290915280517f13da86008ba1c6922daee3e07db95305ef49ebced9f5467a0b8613fcc6b343e390819062000140908262000527565b5060208201518160010155604082015181600201556060820151816003015590505060405180608001604052806040518060400160405280600c81526020016b436f636f6e7574205472656560a01b815250815260200167011c37937e0800008152602001600581526020016002815250600a600060016004811115620001cb57620001cb620005f3565b6004811115620001df57620001df620005f3565b8152602081019190915260400160002081518190620001ff908262000527565b5060208201518160010155604082015181600201556060820151816003015590505060405180608001604052806040518060400160405280600a8152602001694775617661205472656560b01b8152508152602001660aa87bee5380008152602001600581526020016004815250600a600060026004811115620002875762000287620005f3565b60048111156200029b576200029b620005f3565b8152602081019190915260400160002081518190620002bb908262000527565b5060208281015160018301556040808401516002840155606093840151600393840155805160c081018252600d608082019081526c52616d627574616e205472656560981b60a08301528152668e1bc9bf04000081840152600591810191909152928301829052600091909152600a905280517fa856840544dc26124927add067d799967eac11be13e14d82cc281ea46fa397599081906200035e908262000527565b506020828101516001830155604080840151600280850191909155606094850151600390940193909355805160c081018252600e608082019081526d4a61636b6672756974205472656560901b60a0830152815266d529ae9e86000081840152600591810191909152928301919091526004600052600a905280517fe1eb2b2161a492c07c5a334e48012567cba93ec021043f53c1955516a3c5a84190819062000409908262000527565b50602082015160018201556040820151600282015560609091015160039091015562000609565b600780546001600160a01b038381166001600160a01b0319831681179093556040519116919082907f8be0079c531659141344cd1fd0a4f28419497f9722a3daafe3b4186f6b6457e090600090a35050565b634e487b7160e01b600052604160045260246000fd5b600181811c90821680620004ad57607f821691505b602082108103620004ce57634e487b7160e01b600052602260045260246000fd5b50919050565b601f8211156200052257600081815260208120601f850160051c81016020861015620004fd5750805b601f850160051c820191505b818110156200051e5782815560010162000509565b5050505b505050565b81516001600160401b0381111562000543576200054362000482565b6200055b8162000554845462000498565b84620004d4565b602080601f8311600181146200059357600084156200057a5750858301515b600019600386901b1c1916600185901b1785556200051e565b600085815260208120601f198616915b82811015620005c457888601518255948401946001909101908401620005a3565b5085821015620005e35787850151600019600388901b60f8161c191681555b5050505050600190811b01905550565b634e487b7160e01b600052602160045260246000fd5b61586280620006196000396000f3fe6080604052600436106102765760003560e01c80637a69c0891161014f578063c87b56dd116100c1578063e985e9c51161007a578063e985e9c514610863578063ec0bbf9314610883578063eee51b21146108b0578063f2fde38b146108dd578063f5d63c7d146108fd578063fcce48831461091d57600080fd5b8063c87b56dd1461073e578063c9e292691461075e578063d876abaa1461077e578063db2e21bc1461079e578063de74e57b146107b3578063e1ccc7681461083c57600080fd5b8063a22cb46511610113578063a22cb46514610691578063b4312736146106b1578063b51cb587146106c4578063b88d4fde146106f4578063babdb6c814610714578063bd097e211461073657600080fd5b80637a69c089146105d15780638da5cb5b146105fe57806395d89b411461061c5780639f085f4514610631578063a07a86031461066157600080fd5b80635207066c116101e8578063702ed135116101ac578063702ed135146104e557806370a0823114610505578063715018a61461052557806375794a3c1461053a57806376f32a70146105505780637a5080221461057257600080fd5b80635207066c1461043457806361cf4863146104475780636352211e1461047557806369cc2a14146104955780636a43f8ea146104c557600080fd5b806322f93c7b1161023a57806322f93c7b1461034857806323b872dd146103785780632505a1be146103985780632a1e141e146103c757806339f3dc5a146103f457806342842e0e1461041457600080fd5b806301ffc9a71461028257806306fdde03146102b7578063081812fc146102d9578063095ea7b314610311578063210094231461033357600080fd5b3661027d57005b600080fd5b34801561028e57600080fd5b506102a261029d366004614b87565b61094d565b60405190151581526020015b60405180910390f35b3480156102c357600080fd5b506102cc610978565b6040516102ae9190614bf4565b3480156102e557600080fd5b506102f96102f4366004614c07565b610a0a565b6040516001600160a01b0390911681526020016102ae565b34801561031d57600080fd5b5061033161032c366004614c3c565b610a33565b005b34801561033f57600080fd5b50610331610a42565b34801561035457600080fd5b50610368610363366004614c66565b610b3a565b6040516102ae9493929190614d14565b34801561038457600080fd5b50610331610393366004614d61565b610d62565b3480156103a457600080fd5b506103b86103b3366004614dac565b610ded565b6040516102ae93929190614ddf565b3480156103d357600080fd5b506103e76103e2366004614e18565b61111b565b6040516102ae9190614e33565b34801561040057600080fd5b5061033161040f366004614e79565b61123d565b34801561042057600080fd5b5061033161042f366004614d61565b6113e8565b610331610442366004614eed565b611408565b34801561045357600080fd5b50610467610462366004614c07565b6118ac565b6040519081526020016102ae565b34801561048157600080fd5b506102f9610490366004614c07565b6118cd565b3480156104a157600080fd5b506104b56104b0366004614c07565b6118d8565b6040516102ae9493929190614f19565b3480156104d157600080fd5b506103316104e0366004614e79565b611ac1565b3480156104f157600080fd5b50610467610500366004614c07565b611dcf565b34801561051157600080fd5b50610467610520366004614c66565b612008565b34801561053157600080fd5b50610331612050565b34801561054657600080fd5b5061046760095481565b34801561055c57600080fd5b50610565612064565b6040516102ae9190614f51565b34801561057e57600080fd5b506105c161058d366004614c07565b600b60205260009081526040902080546001820154600283015460039093015460ff9092169290916001600160a01b031684565b6040516102ae9493929190614fd6565b3480156105dd57600080fd5b506104676105ec366004614c66565b600c6020526000908152604090205481565b34801561060a57600080fd5b506007546001600160a01b03166102f9565b34801561062857600080fd5b506102cc612259565b34801561063d57600080fd5b5061065161064c366004614c66565b612268565b6040516102ae949392919061505d565b34801561066d57600080fd5b5061068161067c366004614e18565b61278c565b6040516102ae94939291906150da565b34801561069d57600080fd5b506103316106ac366004615109565b61283c565b6103316106bf3660046151f0565b612847565b3480156106d057600080fd5b506102a26106df366004614c66565b60116020526000908152604090205460ff1681565b34801561070057600080fd5b5061033161070f36600461523d565b612b1c565b34801561072057600080fd5b50610729612b33565b6040516102ae91906152b8565b61033161316d565b34801561074a57600080fd5b506102cc610759366004614c07565b613175565b34801561076a57600080fd5b5061033161077936600461535f565b613286565b34801561078a57600080fd5b50610467610799366004614eed565b61331c565b3480156107aa57600080fd5b5061033161335a565b3480156107bf57600080fd5b5061080a6107ce366004614c07565b600e602052600090815260409020805460018201546002830154600384015460049094015492936001600160a01b039092169290919060ff1685565b604080519586526001600160a01b0390941660208601529284019190915260608301521515608082015260a0016102ae565b34801561084857600080fd5b5061085161339e565b6040516102ae969594939291906153c7565b34801561086f57600080fd5b506102a261087e366004615475565b6136a1565b34801561088f57600080fd5b506108a361089e366004614c3c565b6136cf565b6040516102ae919061549f565b3480156108bc57600080fd5b506108d06108cb366004614c66565b613712565b6040516102ae91906154ad565b3480156108e957600080fd5b506103316108f8366004614c66565b613a53565b34801561090957600080fd5b50610467610918366004614e18565b613a8e565b34801561092957600080fd5b506102a2610938366004614c07565b600d6020526000908152604090205460ff1681565b60006001600160e01b03198216632483248360e11b1480610972575061097282613bf5565b92915050565b60606000805461098790615500565b80601f01602080910402602001604051908101604052809291908181526020018280546109b390615500565b8015610a005780601f106109d557610100808354040283529160200191610a00565b820191906000526020600020905b8154815290600101906020018083116109e357829003601f168201915b5050505050905090565b6000610a1582613c45565b506000828152600460205260409020546001600160a01b0316610972565b610a3e828233613c7d565b5050565b610a4a613c8a565b4780610a945760405162461bcd60e51b81526020600482015260146024820152734e6f2066756e647320746f20776974686472617760601b60448201526064015b60405180910390fd5b6000610aa86007546001600160a01b031690565b6001600160a01b03168260405160006040518083038185875af1925050503d8060008114610af2576040519150601f19603f3d011682016040523d82523d6000602084013e610af7565b606091505b5050905080610a3e5760405162461bcd60e51b815260206004820152600f60248201526e15da5d1a191c985dc819985a5b1959608a1b6044820152606401610a8b565b6001600160a01b0381166000908152600c6020526040902054606090819081908190806001600160401b03811115610b7457610b74615145565b604051908082528060200260200182016040528015610b9d578160200160208202803683370190505b509450806001600160401b03811115610bb857610bb8615145565b604051908082528060200260200182016040528015610beb57816020015b6060815260200190600190039081610bd65790505b509350806001600160401b03811115610c0657610c06615145565b604051908082528060200260200182016040528015610c2f578160200160208202803683370190505b509250806001600160401b03811115610c4a57610c4a615145565b604051908082528060200260200182016040528015610c73578160200160208202803683370190505b509150600060015b600954811015610d5857876001600160a01b0316610c9882613cb7565b6001600160a01b031603610d465780878381518110610cb957610cb961553a565b6020026020010181815250506000806000610cd3846118d8565b5092509250925082898681518110610ced57610ced61553a565b602002602001018190525081888681518110610d0b57610d0b61553a565b60200260200101818152505080878681518110610d2a57610d2a61553a565b602090810291909101015284610d3f81615566565b9550505050505b80610d5081615566565b915050610c7b565b5050509193509193565b6001600160a01b038216610d8c57604051633250574960e11b815260006004820152602401610a8b565b6000610d99838333613cd2565b9050836001600160a01b0316816001600160a01b031614610de7576040516364283d7b60e01b81526001600160a01b0380861660048301526024820184905282166044820152606401610a8b565b50505050565b6001600160a01b0382166000908152600f60205260408120606091829182919081866004811115610e2057610e20614f9e565b6004811115610e3157610e31614f9e565b8152602001908152602001600020805480602002602001604051908101604052809291908181526020018280548015610e8957602002820191906000526020600020905b815481526020019060010190808311610e75575b505050505090506000805b8251811015610f3557600d6000848381518110610eb357610eb361553a565b60209081029190910181015182528101919091526040016000205460ff168015610f105750600e6000848381518110610eee57610eee61553a565b60209081029190910181015182528101919091526040016000206004015460ff165b15610f235781610f1f81615566565b9250505b80610f2d81615566565b915050610e94565b50806001600160401b03811115610f4e57610f4e615145565b604051908082528060200260200182016040528015610f77578160200160208202803683370190505b509450806001600160401b03811115610f9257610f92615145565b604051908082528060200260200182016040528015610fbb578160200160208202803683370190505b509350806001600160401b03811115610fd657610fd6615145565b604051908082528060200260200182016040528015610fff578160200160208202803683370190505b5092506000805b83518110156111105760008482815181106110235761102361553a565b6020908102919091018101516000818152600d90925260409091205490915060ff16801561106257506000818152600e602052604090206004015460ff165b156110fd578088848151811061107a5761107a61553a565b602002602001018181525050600e6000828152602001908152602001600020600301548784815181106110af576110af61553a565b602002602001018181525050600e6000828152602001908152602001600020600201548684815181106110e4576110e461553a565b6020908102919091010152826110f981615566565b9350505b508061110881615566565b915050611006565b505050509250925092565b6111466040518060800160405280606081526020016000815260200160008152602001600081525090565b600a600083600481111561115c5761115c614f9e565b600481111561116d5761116d614f9e565b815260200190815260200160002060405180608001604052908160008201805461119690615500565b80601f01602080910402602001604051908101604052809291908181526020018280546111c290615500565b801561120f5780601f106111e45761010080835404028352916020019161120f565b820191906000526020600020905b8154815290600101906020018083116111f257829003601f168201915b5050505050815260200160018201548152602001600282015481526020016003820154815250509050919050565b611245613de5565b806112875760405162461bcd60e51b8152602060048201526012602482015271139bc81d1bdad95b9cc81c1c9bdd9a59195960721b6044820152606401610a8b565b60005b8181101561139a5760008383838181106112a6576112a661553a565b905060200201359050336001600160a01b03166112c2826118cd565b6001600160a01b0316146113185760405162461bcd60e51b815260206004820152601a60248201527f4e6f7420746865206f776e6572206f66207468697320747265650000000000006044820152606401610a8b565b6000818152600d602052604090205460ff166113685760405162461bcd60e51b815260206004820152600f60248201526e151c9959481b9bdd081b1a5cdd1959608a1b6044820152606401610a8b565b6000818152600b602052604090205460ff16611385823383613e0f565b5050808061139290615566565b91505061128a565b50336001600160a01b03167f3fa3ddc780dd74af1f9341736df5507180f79d41b093b8550ca517732ec5951d83836040516113d692919061557f565b60405180910390a2610a3e6001600855565b61140383838360405180602001604052806000815250612b1c565b505050565b611410613de5565b600081116114605760405162461bcd60e51b815260206004820152601f60248201527f5175616e74697479206d7573742062652067726561746572207468616e2030006044820152606401610a8b565b6001600160a01b03831660009081526011602052604090205460ff166114c85760405162461bcd60e51b815260206004820152601d60248201527f53656c6c657220686173206e6f20616374697665206c697374696e67730000006044820152606401610a8b565b6001600160a01b0383166000908152600f60205260408120818460048111156114f3576114f3614f9e565b600481111561150457611504614f9e565b815260200190815260200160002080548060200260200160405190810160405280929190818152602001828054801561155c57602002820191906000526020600020905b815481526020019060010190808311611548575b5050505050905081815110156115c85760405162461bcd60e51b815260206004820152602b60248201527f4e6f7420656e6f75676820747265657320617661696c61626c652066726f6d2060448201526a3a3434b99039b2b63632b960a91b6064820152608401610a8b565b6000826001600160401b038111156115e2576115e2615145565b60405190808252806020026020018201604052801561160b578160200160208202803683370190505b50905060008060005b84518110801561162357508582105b156116e457600085828151811061163c5761163c61553a565b6020908102919091018101516000818152600d90925260409091205490915060ff16801561167b57506000818152600e602052604090206004015460ff165b156116d157808584815181106116935761169361553a565b602002602001018181525050600e600082815260200190815260200160002060030154846116c191906155b8565b9350826116cd81615566565b9350505b50806116dc81615566565b915050611614565b508481146117405760405162461bcd60e51b8152602060048201526024808201527f4e6f7420656e6f75676820616374697665206c697374696e677320617661696c60448201526361626c6560e01b6064820152608401610a8b565b813410156117875760405162461bcd60e51b8152602060048201526014602482015273125b9cdd59999a58da595b9d081c185e5b595b9d60621b6044820152606401610a8b565b60005b858110156117d95760008482815181106117a6576117a661553a565b602002602001015190506117bb818a8a613e0f565b6117c6893383614303565b50806117d181615566565b91505061178a565b506040516001600160a01b0388169083156108fc029084906000818181858888f19350505050158015611810573d6000803e3d6000fd5b508134111561185157336108fc61182784346155cb565b6040518115909202916000818181858888f1935050505015801561184f573d6000803e3d6000fd5b505b336001600160a01b0316876001600160a01b03167f596718f13c536c1e489b6919d4d687f3fc102f8adda16653785f14f72c72667985856040516118969291906155de565b60405180910390a3505050506114036001600855565b601281815481106118bc57600080fd5b600091825260209091200154905081565b600061097282613c45565b606060008080806118e886613cb7565b6001600160a01b0316036119345760405162461bcd60e51b8152602060048201526013602482015272151c995948191bd95cc81b9bdd08195e1a5cdd606a1b6044820152606401610a8b565b6000858152600b60205260408082208151608081019092528054829060ff16600481111561196457611964614f9e565b600481111561197557611975614f9e565b815260018201546020820152600282015460408201526003909101546001600160a01b03166060909101528051909150600090600a90829060048111156119be576119be614f9e565b60048111156119cf576119cf614f9e565b81526020019081526020016000206040518060800160405290816000820180546119f890615500565b80601f0160208091040260200160405190810160405280929190818152602001828054611a2490615500565b8015611a715780601f10611a4657610100808354040283529160200191611a71565b820191906000526020600020905b815481529060010190602001808311611a5457829003601f168201915b50505091835250506001820154602082015260028201546040820152600390910154606090910152805196509050611aa887611dcf565b9450816020015193508160600151925050509193509193565b611ac9613de5565b80611b0b5760405162461bcd60e51b8152602060048201526012602482015271139bc81d1bdad95b9cc81c1c9bdd9a59195960721b6044820152606401610a8b565b60005b81811015611d93576000838383818110611b2a57611b2a61553a565b905060200201359050336001600160a01b0316611b46826118cd565b6001600160a01b031614611b9c5760405162461bcd60e51b815260206004820152601a60248201527f4e6f7420746865206f776e6572206f66207468697320747265650000000000006044820152606401610a8b565b6000611ba782611dcf565b6040805160a081018252848152336020808301828152428486019081526060850187815260016080870181815260008c8152600e875289812098518955945188830180546001600160a01b039092166001600160a01b0319909216919091179055925160028801559051600387015590516004958601805491151560ff19928316179055600d84528683208054909116821790556012805491820190557fbb8a6a4669ba250d26cd7a459eca9d215f8307e33aebe50379bc5a3617ec344401889055600b825284812054928152600f90915292832093945060ff169291908390811115611c9657611c96614f9e565b6004811115611ca757611ca7614f9e565b815260208082019290925260409081016000908120805460018101825590825283822001869055338152600f909252812090826004811115611ceb57611ceb614f9e565b6004811115611cfc57611cfc614f9e565b8152602081019190915260400160002054600103611d645733600090815260106020908152604082208054600181018255908352918190209082040180548392601f166101000a60ff81021990911690836004811115611d5e57611d5e614f9e565b02179055505b5050336000908152601160205260409020805460ff191660011790555080611d8b81615566565b915050611b0e565b50336001600160a01b03167ffc4f8948e68b1d67bd9db6ff71f155b426a2d051f2e60143df0bd2d8c7aec71583836040516113d692919061557f565b600080611ddb83613cb7565b6001600160a01b031603611e275760405162461bcd60e51b8152602060048201526013602482015272151c995948191bd95cc81b9bdd08195e1a5cdd606a1b6044820152606401610a8b565b6000828152600b60205260408082208151608081019092528054829060ff166004811115611e5757611e57614f9e565b6004811115611e6857611e68614f9e565b815260018201546020820152600282015460408201526003909101546001600160a01b03166060909101528051909150600090600a9082906004811115611eb157611eb1614f9e565b6004811115611ec257611ec2614f9e565b8152602001908152602001600020604051806080016040529081600082018054611eeb90615500565b80601f0160208091040260200160405190810160405280929190818152602001828054611f1790615500565b8015611f645780601f10611f3957610100808354040283529160200191611f64565b820191906000526020600020905b815481529060010190602001808311611f4757829003601f168201915b505050505081526020016001820154815260200160028201548152602001600382015481525050905060006301e13380836020015142611fa491906155cb565b611fae9190615600565b9050600082606001518360400151611fc691906155b8565b90506000611fd48383615622565b611fdf9060646155b8565b90506064818660400151611ff39190615622565b611ffd9190615600565b979650505050505050565b60006001600160a01b038216612034576040516322718ad960e21b815260006004820152602401610a8b565b506001600160a01b031660009081526003602052604090205490565b612058613c8a565b61206260006143b3565b565b60606000806012805490506001600160401b0381111561208657612086615145565b6040519080825280602002602001820160405280156120af578160200160208202803683370190505b50905060005b6012548110156121ad576000600e6000601284815481106120d8576120d861553a565b600091825260208083209091015483528201929092526040018120600101546001600160a01b03169150805b8581101561215957826001600160a01b03168582815181106121285761212861553a565b60200260200101516001600160a01b0316036121475760019150612159565b8061215181615566565b915050612104565b508061219857818486815181106121725761217261553a565b6001600160a01b03909216602092830291909101909101528461219481615566565b9550505b505080806121a590615566565b9150506120b5565b50816001600160401b038111156121c6576121c6615145565b6040519080825280602002602001820160405280156121ef578160200160208202803683370190505b50925060005b828110156122535781818151811061220f5761220f61553a565b60200260200101518482815181106122295761222961553a565b6001600160a01b03909216602092830291909101909101528061224b81615566565b9150506121f5565b50505090565b60606001805461098790615500565b606080606080612276614b53565b600060015b60095481101561233b57876001600160a01b031661229882613cb7565b6001600160a01b031603612329576000818152600b602052604090205460ff16838160048111156122cb576122cb614f9e565b60ff16600581106122de576122de61553a565b6020020151612327576001848260048111156122fc576122fc614f9e565b60ff166005811061230f5761230f61553a565b911515602090920201528261232381615566565b9350505b505b8061233381615566565b91505061227b565b50806001600160401b0381111561235457612354615145565b60405190808252806020026020018201604052801561237d578160200160208202803683370190505b509550806001600160401b0381111561239857612398615145565b6040519080825280602002602001820160405280156123c1578160200160208202803683370190505b509450806001600160401b038111156123dc576123dc615145565b60405190808252806020026020018201604052801561240f57816020015b60608152602001906001900390816123fa5790505b509350806001600160401b0381111561242a5761242a615145565b60405190808252806020026020018201604052801561245d57816020015b60608152602001906001900390816124485790505b5092506000805b60058160ff16101561278157838160ff16600581106124855761248561553a565b60200201511561276f5760008160ff1660048111156124a6576124a6614f9e565b9050808984815181106124bb576124bb61553a565b602002602001019060048111156124d4576124d4614f9e565b908160048111156124e7576124e7614f9e565b905250600060015b600954811015612579578b6001600160a01b031661250c82613cb7565b6001600160a01b0316148015612554575082600481111561252f5761252f614f9e565b6000828152600b602052604090205460ff16600481111561255257612552614f9e565b145b15612567578161256381615566565b9250505b8061257181615566565b9150506124ef565b508089858151811061258d5761258d61553a565b602002602001018181525050806001600160401b038111156125b1576125b1615145565b6040519080825280602002602001820160405280156125da578160200160208202803683370190505b508885815181106125ed576125ed61553a565b6020026020010181905250806001600160401b0381111561261057612610615145565b604051908082528060200260200182016040528015612639578160200160208202803683370190505b5087858151811061264c5761264c61553a565b6020908102919091010152600060015b60095481101561275d578c6001600160a01b031661267982613cb7565b6001600160a01b03161480156126c1575083600481111561269c5761269c614f9e565b6000828152600b602052604090205460ff1660048111156126bf576126bf614f9e565b145b1561274b57808a87815181106126d9576126d961553a565b602002602001015183815181106126f2576126f261553a565b60200260200101818152505061270781611dcf565b8987815181106127195761271961553a565b602002602001015183815181106127325761273261553a565b60209081029190910101528161274781615566565b9250505b8061275581615566565b91505061265c565b508461276881615566565b9550505050505b8061277981615639565b915050612464565b505050509193509193565b600a602052600090815260409020805481906127a790615500565b80601f01602080910402602001604051908101604052809291908181526020018280546127d390615500565b80156128205780601f106127f557610100808354040283529160200191612820565b820191906000526020600020905b81548152906001019060200180831161280357829003601f168201915b5050505050908060010154908060020154908060030154905084565b610a3e338383614405565b61284f613de5565b6000600a600084600481111561286757612867614f9e565b600481111561287857612878614f9e565b81526020019081526020016000206040518060800160405290816000820180546128a190615500565b80601f01602080910402602001604051908101604052809291908181526020018280546128cd90615500565b801561291a5780601f106128ef5761010080835404028352916020019161291a565b820191906000526020600020905b8154815290600101906020018083116128fd57829003601f168201915b5050505050815260200160018201548152602001600282015481526020016003820154815250509050600061294e84613a8e565b9050803410156129975760405162461bcd60e51b8152602060048201526014602482015273125b9cdd59999a58da595b9d081c185e5b595b9d60621b6044820152606401610a8b565b60098054600091826129a883615566565b9190505590506129b833826144a4565b6129c281856144be565b60405180608001604052808660048111156129df576129df614f9e565b81524260208083019190915234604080840191909152336060909301929092526000848152600b9091522081518154829060ff19166001836004811115612a2857612a28614f9e565b021790555060208281015160018301556040808401516002840155606090930151600390920180546001600160a01b0319166001600160a01b0390931692909217909155336000908152600c909152908120805491612a8683615566565b9190505550336001600160a01b0316817fbdd470aa38c4dc34533cb66c382a1754cddb22ebce90f0bdd993afc59b6a2ff68734604051612ac7929190615658565b60405180910390a381341115612b0f57336108fc612ae584346155cb565b6040518115909202916000818181858888f19350505050158015612b0d573d6000803e3d6000fd5b505b505050610a3e6001600855565b612b27848484610d62565b610de78484848461450e565b60606000612b3f612064565b90506000805b8251811015612baf5760106000848381518110612b6457612b6461553a565b60200260200101516001600160a01b03166001600160a01b031681526020019081526020016000208054905082612b9b91906155b8565b915080612ba781615566565b915050612b45565b50806001600160401b03811115612bc857612bc8615145565b604051908082528060200260200182016040528015612c2c57816020015b612c196040805160a081019091526000808252602082019081526020016000815260200160008152602001606081525090565b815260200190600190039081612be65790505b5092506000805b835181101561308d576000848281518110612c5057612c5061553a565b60200260200101519050600060106000836001600160a01b03166001600160a01b03168152602001908152602001600020805480602002602001604051908101604052809291908181526020018280548015612cfb57602002820191906000526020600020906000905b82829054906101000a900460ff166004811115612cd957612cd9614f9e565b815260206001928301818104948501949093039092029101808411612cba5790505b5050505050905060005b8151811015613077576000828281518110612d2257612d2261553a565b602002602001015190506000600f6000866001600160a01b03166001600160a01b031681526020019081526020016000206000836004811115612d6757612d67614f9e565b6004811115612d7857612d78614f9e565b8152602001908152602001600020805480602002602001604051908101604052809291908181526020018280548015612dd057602002820191906000526020600020905b815481526020019060010190808311612dbc575b5050505050905060008151111561306257600080600083516001600160401b03811115612dff57612dff615145565b604051908082528060200260200182016040528015612e28578160200160208202803683370190505b50905060005b8451811015612f4457600d6000868381518110612e4d57612e4d61553a565b60209081029190910181015182528101919091526040016000205460ff168015612eaa5750600e6000868381518110612e8857612e8861553a565b60209081029190910181015182528101919091526040016000206004015460ff165b15612f3257848181518110612ec157612ec161553a565b6020026020010151828481518110612edb57612edb61553a565b602002602001018181525050600e6000868381518110612efd57612efd61553a565b602002602001015181526020019081526020016000206003015484612f2291906155b8565b935082612f2e81615566565b9350505b80612f3c81615566565b915050612e2e565b50811561305e576000826001600160401b03811115612f6557612f65615145565b604051908082528060200260200182016040528015612f8e578160200160208202803683370190505b50905060005b83811015612fe557828181518110612fae57612fae61553a565b6020026020010151828281518110612fc857612fc861553a565b602090810291909101015280612fdd81615566565b915050612f94565b506040518060a001604052808a6001600160a01b0316815260200187600481111561301257613012614f9e565b8152602081018590526040016130288587615600565b8152602001828152508e8c815181106130435761304361553a565b60200260200101819052508a8061305990615566565b9b5050505b5050505b5050808061306f90615566565b915050612d05565b505050808061308590615566565b915050612c33565b506000816001600160401b038111156130a8576130a8615145565b60405190808252806020026020018201604052801561310c57816020015b6130f96040805160a081019091526000808252602082019081526020016000815260200160008152602001606081525090565b8152602001906001900390816130c65790505b50905060005b828110156131645785818151811061312c5761312c61553a565b60200260200101518282815181106131465761314661553a565b6020026020010181905250808061315c90615566565b915050613112565b50949350505050565b612062613c8a565b606061318082613c45565b506000828152600660205260408120805461319a90615500565b80601f01602080910402602001604051908101604052809291908181526020018280546131c690615500565b80156132135780601f106131e857610100808354040283529160200191613213565b820191906000526020600020905b8154815290600101906020018083116131f657829003601f168201915b50505050509050600061323160408051602081019091526000815290565b90508051600003613243575092915050565b81511561327557808260405160200161325d929190615673565b60405160208183030381529060405292505050919050565b61327e84614637565b949350505050565b61328e613c8a565b604051806080016040528085815260200184815260200183815260200182815250600a60008760048111156132c5576132c5614f9e565b60048111156132d6576132d6614f9e565b81526020810191909152604001600020815181906132f490826156f0565b5060208201516001820155604082015160028201556060909101516003909101555050505050565b600f602052826000526040600020602052816000526040600020818154811061334457600080fd5b9060005260206000200160009250925050505481565b613362613c8a565b6007546040516001600160a01b03909116904780156108fc02916000818181858888f1935050505015801561339b573d6000803e3d6000fd5b50565b6060808080808060056040519080825280602002602001820160405280156133d0578160200160208202803683370190505b5060408051600580825260c08201909252919750816020015b60608152602001906001900390816133e957505060408051600580825260c082019092529196506020820160a080368337505060408051600580825260c0820190925292965090506020820160a080368337505060408051600580825260c0820190925292955090506020820160a080368337505060408051600580825260c0820190925292945090506020820160a08036833701905050905060005b60058110156136985760008160048111156134a3576134a3614f9e565b90506000600a60008360048111156134bd576134bd614f9e565b60048111156134ce576134ce614f9e565b81526020019081526020016000206040518060800160405290816000820180546134f790615500565b80601f016020809104026020016040519081016040528092919081815260200182805461352390615500565b80156135705780601f1061354557610100808354040283529160200191613570565b820191906000526020600020905b81548152906001019060200180831161355357829003601f168201915b50505050508152602001600182015481526020016002820154815260200160038201548152505090508160048111156135ab576135ab614f9e565b8984815181106135bd576135bd61553a565b602002602001019060ff16908160ff168152505080600001518884815181106135e8576135e861553a565b6020026020010181905250806020015187848151811061360a5761360a61553a565b60200260200101818152505061361f82613a8e565b8684815181106136315761363161553a565b60200260200101818152505080604001518584815181106136545761365461553a565b60200260200101818152505080606001518484815181106136775761367761553a565b6020026020010181815250505050808061369090615566565b915050613486565b50909192939495565b6001600160a01b03918216600090815260056020908152604080832093909416825291909152205460ff1690565b601060205281600052604060002081815481106136eb57600080fd5b9060005260206000209060209182820401919006915091509054906101000a900460ff1681565b6001600160a01b03811660009081526010602090815260408083208054825181850281018501909352808352606094938301828280156137a157602002820191906000526020600020906000905b82829054906101000a900460ff16600481111561377f5761377f614f9e565b8152602060019283018181049485019490930390920291018084116137605790505b5050505050905080516001600160401b038111156137c1576137c1615145565b60405190808252806020026020018201604052801561381757816020015b6138046040805160608101909152806000815260200160008152602001600081525090565b8152602001906001900390816137df5790505b50915060005b8151811015613a4c57600082828151811061383a5761383a61553a565b602002602001015190506000600f6000876001600160a01b03166001600160a01b03168152602001908152602001600020600083600481111561387f5761387f614f9e565b600481111561389057613890614f9e565b81526020019081526020016000208054806020026020016040519081016040528092919081815260200182805480156138e857602002820191906000526020600020905b8154815260200190600101908083116138d4575b5050505050905060008060005b83518110156139d357600d60008583815181106139145761391461553a565b60209081029190910181015182528101919091526040016000205460ff1680156139715750600e600085838151811061394f5761394f61553a565b60209081029190910181015182528101919091526040016000206004015460ff165b156139c157600e600085838151811061398c5761398c61553a565b6020026020010151815260200190815260200160002060030154836139b191906155b8565b9250816139bd81615566565b9250505b806139cb81615566565b9150506138f5565b5060405180606001604052808560048111156139f1576139f1614f9e565b815260200182815260200160008311613a0b576000613a15565b613a158385615600565b815250878681518110613a2a57613a2a61553a565b6020026020010181905250505050508080613a4490615566565b91505061381d565b5050919050565b613a5b613c8a565b6001600160a01b038116613a8557604051631e4fbdf760e01b815260006004820152602401610a8b565b61339b816143b3565b600080600a6000846004811115613aa757613aa7614f9e565b6004811115613ab857613ab8614f9e565b8152602001908152602001600020604051806080016040529081600082018054613ae190615500565b80601f0160208091040260200160405190810160405280929190818152602001828054613b0d90615500565b8015613b5a5780601f10613b2f57610100808354040283529160200191613b5a565b820191906000526020600020905b815481529060010190602001808311613b3d57829003601f168201915b505050505081526020016001820154815260200160028201548152602001600382015481525050905060006001600954613b9491906155cb565b9050600082606001518360400151613bac91906155b8565b90506000620186a082848660200151613bc59190615622565b613bcf9190615622565b613bd99190615600565b9050808460200151613beb91906155b8565b9695505050505050565b60006001600160e01b031982166380ac58cd60e01b1480613c2657506001600160e01b03198216635b5e139f60e01b145b8061097257506301ffc9a760e01b6001600160e01b0319831614610972565b600080613c5183613cb7565b90506001600160a01b03811661097257604051637e27328960e01b815260048101849052602401610a8b565b61140383838360016146ac565b6007546001600160a01b031633146120625760405163118cdaa760e01b8152336004820152602401610a8b565b6000908152600260205260409020546001600160a01b031690565b600080613cde84613cb7565b90506001600160a01b03811615801590613d0057506001600160a01b03851615155b8015613d1e5750846001600160a01b0316816001600160a01b031614155b15613dd1576001600160a01b0381166000908152600c60205260408120805491613d47836157af565b90915550506001600160a01b0385166000908152600c60205260408120805491613d7083615566565b90915550506000848152600b6020908152604080832060030180546001600160a01b0319166001600160a01b038a16179055600d90915290205460ff1615613dd1576000848152600b602052604090205460ff16613dcf858383613e0f565b505b613ddc8585856147b2565b95945050505050565b600260085403613e0857604051633ee5aeb560e01b815260040160405180910390fd5b6002600855565b6000838152600d60209081526040808320805460ff19908116909155600e9092528220600401805490911690555b601254811015613ef3578360128281548110613e5b57613e5b61553a565b906000526020600020015403613ee15760128054613e7b906001906155cb565b81548110613e8b57613e8b61553a565b906000526020600020015460128281548110613ea957613ea961553a565b6000918252602090912001556012805480613ec657613ec66157c6565b60019003818190600052602060002001600090559055613ef3565b80613eeb81615566565b915050613e3d565b506001600160a01b0382166000908152600f6020526040812081836004811115613f1f57613f1f614f9e565b6004811115613f3057613f30614f9e565b8152602001908152602001600020905060005b8154811015613ff75784828281548110613f5f57613f5f61553a565b906000526020600020015403613fe55781548290613f7f906001906155cb565b81548110613f8f57613f8f61553a565b9060005260206000200154828281548110613fac57613fac61553a565b906000526020600020018190555081805480613fca57613fca6157c6565b60019003818190600052602060002001600090559055613ff7565b80613fef81615566565b915050613f43565b506001600160a01b0383166000908152600f602052604081209083600481111561402357614023614f9e565b600481111561403457614034614f9e565b8152602001908152602001600020805490506000036141a8576001600160a01b0383166000908152601060205260408120905b81548110156141a55783600481111561408257614082614f9e565b8282815481106140945761409461553a565b90600052602060002090602091828204019190069054906101000a900460ff1660048111156140c5576140c5614f9e565b0361419357815482906140da906001906155cb565b815481106140ea576140ea61553a565b90600052602060002090602091828204019190069054906101000a900460ff1682828154811061411c5761411c61553a565b90600052602060002090602091828204019190066101000a81548160ff0219169083600481111561414f5761414f614f9e565b021790555081805480614164576141646157c6565b60019003818190600052602060002090602091828204019190066101000a81549060ff021916905590556141a5565b8061419d81615566565b915050614067565b50505b6001600160a01b03831660009081526010602090815260408083208054825181850281018501909352808352849383018282801561423557602002820191906000526020600020906000905b82829054906101000a900460ff16600481111561421357614213614f9e565b8152602060019283018181049485019490930390920291018084116141f45790505b5050505050905060005b81518110156142d2576001600160a01b0386166000908152600f60205260408120835182908590859081106142765761427661553a565b6020026020010151600481111561428f5761428f614f9e565b60048111156142a0576142a0614f9e565b815260208101919091526040016000205411156142c057600192506142d2565b806142ca81615566565b91505061423f565b50506001600160a01b03939093166000908152601160205260409020805460ff191693151593909317909255505050565b6001600160a01b03821661432d57604051633250574960e11b815260006004820152602401610a8b565b600061433b83836000613cd2565b90506001600160a01b03811661436757604051637e27328960e01b815260048101839052602401610a8b565b836001600160a01b0316816001600160a01b031614610de7576040516364283d7b60e01b81526001600160a01b0380861660048301526024820184905282166044820152606401610a8b565b600780546001600160a01b038381166001600160a01b0319831681179093556040519116919082907f8be0079c531659141344cd1fd0a4f28419497f9722a3daafe3b4186f6b6457e090600090a35050565b6001600160a01b03821661443757604051630b61174360e31b81526001600160a01b0383166004820152602401610a8b565b6001600160a01b03838116600081815260056020908152604080832094871680845294825291829020805460ff191686151590811790915591519182527f17307eab39ab6107e8899845ad3d59bd9653f200f220920489ca2b5937696c31910160405180910390a3505050565b610a3e8282604051806020016040528060008152506148a6565b60008281526006602052604090206144d682826156f0565b506040518281527ff8e1a15aba9398e019f0b49df1a4fde98ee17ae345cb5f6b5e2c27f5033e8ce79060200160405180910390a15050565b6001600160a01b0383163b15610de757604051630a85bd0160e11b81526001600160a01b0384169063150b7a02906145509033908890879087906004016157dc565b6020604051808303816000875af192505050801561458b575060408051601f3d908101601f191682019092526145889181019061580f565b60015b6145f4573d8080156145b9576040519150601f19603f3d011682016040523d82523d6000602084013e6145be565b606091505b5080516000036145ec57604051633250574960e11b81526001600160a01b0385166004820152602401610a8b565b805181602001fd5b6001600160e01b03198116630a85bd0160e11b1461463057604051633250574960e11b81526001600160a01b0385166004820152602401610a8b565b5050505050565b606061464282613c45565b50600061465a60408051602081019091526000815290565b9050600081511161467a57604051806020016040528060008152506146a5565b80614684846148bd565b604051602001614695929190615673565b6040516020818303038152906040525b9392505050565b80806146c057506001600160a01b03821615155b156147825760006146d084613c45565b90506001600160a01b038316158015906146fc5750826001600160a01b0316816001600160a01b031614155b801561470f575061470d81846136a1565b155b156147385760405163a9fbf51f60e01b81526001600160a01b0384166004820152602401610a8b565b81156147805783856001600160a01b0316826001600160a01b03167f8c5be1e5ebec7d5bd14f71427d1e84f3dd0314c0f7b2291e5b200ac8c7c3b92560405160405180910390a45b505b5050600090815260046020526040902080546001600160a01b0319166001600160a01b0392909216919091179055565b6000806147be84613cb7565b90506001600160a01b038316156147da576147da81848661494f565b6001600160a01b03811615614818576147f76000856000806146ac565b6001600160a01b038116600090815260036020526040902080546000190190555b6001600160a01b03851615614847576001600160a01b0385166000908152600360205260409020805460010190555b60008481526002602052604080822080546001600160a01b0319166001600160a01b0389811691821790925591518793918516917fddf252ad1be2c89b69c2b068fc378daa952ba7f163c4a11628f55a4df523b3ef91a4949350505050565b6148b083836149b3565b611403600084848461450e565b606060006148ca83614a18565b60010190506000816001600160401b038111156148e9576148e9615145565b6040519080825280601f01601f191660200182016040528015614913576020820181803683370190505b5090508181016020015b600019016f181899199a1a9b1b9c1cb0b131b232b360811b600a86061a8153600a850494508461491d57509392505050565b61495a838383614af0565b611403576001600160a01b03831661498857604051637e27328960e01b815260048101829052602401610a8b565b60405163177e802f60e01b81526001600160a01b038316600482015260248101829052604401610a8b565b6001600160a01b0382166149dd57604051633250574960e11b815260006004820152602401610a8b565b60006149eb83836000613cd2565b90506001600160a01b03811615611403576040516339e3563760e11b815260006004820152602401610a8b565b60008072184f03e93ff9f4daa797ed6e38ed64bf6a1f0160401b8310614a575772184f03e93ff9f4daa797ed6e38ed64bf6a1f0160401b830492506040015b6d04ee2d6d415b85acef81000000008310614a83576d04ee2d6d415b85acef8100000000830492506020015b662386f26fc100008310614aa157662386f26fc10000830492506010015b6305f5e1008310614ab9576305f5e100830492506008015b6127108310614acd57612710830492506004015b60648310614adf576064830492506002015b600a83106109725760010192915050565b60006001600160a01b0383161580159061327e5750826001600160a01b0316846001600160a01b03161480614b2a5750614b2a84846136a1565b8061327e5750506000908152600460205260409020546001600160a01b03908116911614919050565b6040518060a001604052806005906020820280368337509192915050565b6001600160e01b03198116811461339b57600080fd5b600060208284031215614b9957600080fd5b81356146a581614b71565b60005b83811015614bbf578181015183820152602001614ba7565b50506000910152565b60008151808452614be0816020860160208601614ba4565b601f01601f19169290920160200192915050565b6020815260006146a56020830184614bc8565b600060208284031215614c1957600080fd5b5035919050565b80356001600160a01b0381168114614c3757600080fd5b919050565b60008060408385031215614c4f57600080fd5b614c5883614c20565b946020939093013593505050565b600060208284031215614c7857600080fd5b6146a582614c20565b600081518084526020808501945080840160005b83811015614cb157815187529582019590820190600101614c95565b509495945050505050565b600082825180855260208086019550808260051b84010181860160005b84811015614d0757601f19868403018952614cf5838351614bc8565b98840198925090830190600101614cd9565b5090979650505050505050565b608081526000614d276080830187614c81565b8281036020840152614d398187614cbc565b90508281036040840152614d4d8186614c81565b90508281036060840152611ffd8185614c81565b600080600060608486031215614d7657600080fd5b614d7f84614c20565b9250614d8d60208501614c20565b9150604084013590509250925092565b803560058110614c3757600080fd5b60008060408385031215614dbf57600080fd5b614dc883614c20565b9150614dd660208401614d9d565b90509250929050565b606081526000614df26060830186614c81565b8281036020840152614e048186614c81565b90508281036040840152613beb8185614c81565b600060208284031215614e2a57600080fd5b6146a582614d9d565b602081526000825160806020840152614e4f60a0840182614bc8565b90506020840151604084015260408401516060840152606084015160808401528091505092915050565b60008060208385031215614e8c57600080fd5b82356001600160401b0380821115614ea357600080fd5b818501915085601f830112614eb757600080fd5b813581811115614ec657600080fd5b8660208260051b8501011115614edb57600080fd5b60209290920196919550909350505050565b600080600060608486031215614f0257600080fd5b614f0b84614c20565b9250614d8d60208501614d9d565b608081526000614f2c6080830187614bc8565b60208301959095525060408101929092526001600160a01b0316606090910152919050565b6020808252825182820181905260009190848201906040850190845b81811015614f925783516001600160a01b031683529284019291840191600101614f6d565b50909695505050505050565b634e487b7160e01b600052602160045260246000fd5b60058110614fd257634e487b7160e01b600052602160045260246000fd5b9052565b60808101614fe48287614fb4565b602082019490945260408101929092526001600160a01b0316606090910152919050565b600081518084526020808501808196508360051b8101915082860160005b8581101561505057828403895261503e848351614c81565b98850198935090840190600101615026565b5091979650505050505050565b6080808252855190820181905260009060209060a0840190828901845b8281101561509d5761508d848351614fb4565b928401929084019060010161507a565b505050838103828501526150b18188614c81565b91505082810360408401526150c68186615008565b90508281036060840152611ffd8185615008565b6080815260006150ed6080830187614bc8565b6020830195909552506040810192909252606090910152919050565b6000806040838503121561511c57600080fd5b61512583614c20565b91506020830135801515811461513a57600080fd5b809150509250929050565b634e487b7160e01b600052604160045260246000fd5b60006001600160401b038084111561517557615175615145565b604051601f8501601f19908116603f0116810190828211818310171561519d5761519d615145565b816040528093508581528686860111156151b657600080fd5b858560208301376000602087830101525050509392505050565b600082601f8301126151e157600080fd5b6146a58383356020850161515b565b6000806040838503121561520357600080fd5b61520c83614d9d565b915060208301356001600160401b0381111561522757600080fd5b615233858286016151d0565b9150509250929050565b6000806000806080858703121561525357600080fd5b61525c85614c20565b935061526a60208601614c20565b92506040850135915060608501356001600160401b0381111561528c57600080fd5b8501601f8101871361529d57600080fd5b6152ac8782356020840161515b565b91505092959194509250565b60006020808301818452808551808352604092508286019150828160051b87010184880160005b8381101561535157888303603f19018552815180516001600160a01b031684528781015160a0906153128a870182614fb4565b5081880151858901526060808301519086015260809182015191850181905261533d81860183614c81565b9689019694505050908601906001016152df565b509098975050505050505050565b600080600080600060a0868803121561537757600080fd5b61538086614d9d565b945060208601356001600160401b0381111561539b57600080fd5b6153a7888289016151d0565b959895975050505060408401359360608101359360809091013592509050565b60c0808252875190820181905260009060209060e0840190828b01845b8281101561540357815160ff16845292840192908401906001016153e4565b50505083810382850152615417818a614cbc565b915050828103604084015261542c8188614c81565b905082810360608401526154408187614c81565b905082810360808401526154548186614c81565b905082810360a08401526154688185614c81565b9998505050505050505050565b6000806040838503121561548857600080fd5b61549183614c20565b9150614dd660208401614c20565b602081016109728284614fb4565b602080825282518282018190526000919060409081850190868401855b828110156150505781516154df858251614fb4565b808701518588015285015185850152606090930192908501906001016154ca565b600181811c9082168061551457607f821691505b60208210810361553457634e487b7160e01b600052602260045260246000fd5b50919050565b634e487b7160e01b600052603260045260246000fd5b634e487b7160e01b600052601160045260246000fd5b60006001820161557857615578615550565b5060010190565b6020808252810182905260006001600160fb1b0383111561559f57600080fd5b8260051b80856040850137919091016040019392505050565b8082018082111561097257610972615550565b8181038181111561097257610972615550565b6040815260006155f16040830185614c81565b90508260208301529392505050565b60008261561d57634e487b7160e01b600052601260045260246000fd5b500490565b808202811582820484141761097257610972615550565b600060ff821660ff810361564f5761564f615550565b60010192915050565b604081016156668285614fb4565b8260208301529392505050565b60008351615685818460208801614ba4565b835190830190615699818360208801614ba4565b01949350505050565b601f82111561140357600081815260208120601f850160051c810160208610156156c95750805b601f850160051c820191505b818110156156e8578281556001016156d5565b505050505050565b81516001600160401b0381111561570957615709615145565b61571d816157178454615500565b846156a2565b602080601f831160018114615752576000841561573a5750858301515b600019600386901b1c1916600185901b1785556156e8565b600085815260208120601f198616915b8281101561578157888601518255948401946001909101908401615762565b508582101561579f5787850151600019600388901b60f8161c191681555b5050505050600190811b01905550565b6000816157be576157be615550565b506000190190565b634e487b7160e01b600052603160045260246000fd5b6001600160a01b0385811682528416602082015260408101839052608060608201819052600090613beb90830184614bc8565b60006020828403121561582157600080fd5b81516146a581614b7156fea26469706673582212205c2f10f1ef726ed71ad5f502222f5dfbff0d1a51c7a9af16c9ea6e4dc0b02c2b64736f6c63430008140033",
  "devdoc": {
    "errors": {
      "ERC721IncorrectOwner(address,uint256,address)": [
        {
          "details": "Indicates an error related to the ownership over a particular token. Used in transfers.",
          "params": {
            "owner": "Address of the current owner of a token.",
            "sender": "Address whose tokens are being transferred.",
            "tokenId": "Identifier number of a token."
          }
        }
      ],
      "ERC721InsufficientApproval(address,uint256)": [
        {
          "details": "Indicates a failure with the `operator`s approval. Used in transfers.",
          "params": {
            "operator": "Address that may be allowed to operate on tokens without being their owner.",
            "tokenId": "Identifier number of a token."
          }
        }
      ],
      "ERC721InvalidApprover(address)": [
        {
          "details": "Indicates a failure with the `approver` of a token to be approved. Used in approvals.",
          "params": {
            "approver": "Address initiating an approval operation."
          }
        }
      ],
      "ERC721InvalidOperator(address)": [
        {
          "details": "Indicates a failure with the `operator` to be approved. Used in approvals.",
          "params": {
            "operator": "Address that may be allowed to operate on tokens without being their owner."
          }
        }
      ],
      "ERC721InvalidOwner(address)": [
        {
          "details": "Indicates that an address can't be an owner. For example, `address(0)` is a forbidden owner in EIP-20. Used in balance queries.",
          "params": {
            "owner": "Address of the current owner of a token."
          }
        }
      ],
      "ERC721InvalidReceiver(address)": [
        {
          "details": "Indicates a failure with the token `receiver`. Used in transfers.",
          "params": {
            "receiver": "Address to which tokens are being transferred."
          }
        }
      ],
      "ERC721InvalidSender(address)": [
        {
          "details": "Indicates a failure with the token `sender`. Used in transfers.",
          "params": {
            "sender": "Address whose tokens are being transferred."
          }
        }
      ],
      "ERC721NonexistentToken(uint256)": [
        {
          "details": "Indicates a `tokenId` whose `owner` is the zero address.",
          "params": {
            "tokenId": "Identifier number of a token."
          }
        }
      ],
      "OwnableInvalidOwner(address)": [
        {
          "details": "The owner is not a valid owner account. (eg. `address(0)`)"
        }
      ],
      "OwnableUnauthorizedAccount(address)": [
        {
          "details": "The caller account is not authorized to perform an operation."
        }
      ],
      "ReentrancyGuardReentrantCall()": [
        {
          "details": "Unauthorized reentrant call."
        }
      ]
    },
    "events": {
      "Approval(address,address,uint256)": {
        "details": "Emitted when `owner` enables `approved` to manage the `tokenId` token."
      },
      "ApprovalForAll(address,address,bool)": {
        "details": "Emitted when `owner` enables or disables (`approved`) `operator` to manage all of its assets."
      },
      "BatchMetadataUpdate(uint256,uint256)": {
        "details": "This event emits when the metadata of a range of tokens is changed. So that the third-party platforms such as NFT market could timely update the images and related attributes of the NFTs."
      },
      "MetadataUpdate(uint256)": {
        "details": "This event emits when the metadata of a token is changed. So that the third-party platforms such as NFT market could timely update the images and related attributes of the NFT."
      },
      "Transfer(address,address,uint256)": {
        "details": "Emitted when `tokenId` token is transferred from `from` to `to`."
      }
    },
    "kind": "dev",
    "methods": {
      "approve(address,uint256)": {
        "details": "See {IERC721-approve}."
      },
      "balanceOf(address)": {
        "details": "See {IERC721-balanceOf}."
      },
      "getApproved(uint256)": {
        "details": "See {IERC721-getApproved}."
      },
      "isApprovedForAll(address,address)": {
        "details": "See {IERC721-isApprovedForAll}."
      },
      "name()": {
        "details": "See {IERC721Metadata-name}."
      },
      "owner()": {
        "details": "Returns the address of the current owner."
      },
      "ownerOf(uint256)": {
        "details": "See {IERC721-ownerOf}."
      },
      "renounceOwnership()": {
        "details": "Leaves the contract without owner. It will not be possible to call `onlyOwner` functions. Can only be called by the current owner. NOTE: Renouncing ownership will leave the contract without an owner, thereby disabling any functionality that is only available to the owner."
      },
      "safeTransferFrom(address,address,uint256)": {
        "details": "See {IERC721-safeTransferFrom}."
      },
      "safeTransferFrom(address,address,uint256,bytes)": {
        "details": "See {IERC721-safeTransferFrom}."
      },
      "setApprovalForAll(address,bool)": {
        "details": "See {IERC721-setApprovalForAll}."
      },
      "supportsInterface(bytes4)": {
        "details": "See {IERC165-supportsInterface}"
      },
      "symbol()": {
        "details": "See {IERC721Metadata-symbol}."
      },
      "tokenURI(uint256)": {
        "details": "See {IERC721Metadata-tokenURI}."
      },
      "transferFrom(address,address,uint256)": {
        "details": "See {IERC721-transferFrom}."
      },
      "transferOwnership(address)": {
        "details": "Transfers ownership of the contract to a new account (`newOwner`). Can only be called by the current owner."
      }
    },
    "version": 1
  },
  "userdoc": {
    "kind": "user",
    "methods": {},
    "version": 1
  },
  "storageLayout": {
    "storage": [
      {
        "astId": 349,
        "contract": "contracts/TreeNFT.sol:FruitTreeNFT",
        "label": "_name",
        "offset": 0,
        "slot": "0",
        "type": "t_string_storage"
      },
      {
        "astId": 351,
        "contract": "contracts/TreeNFT.sol:FruitTreeNFT",
        "label": "_symbol",
        "offset": 0,
        "slot": "1",
        "type": "t_string_storage"
      },
      {
        "astId": 355,
        "contract": "contracts/TreeNFT.sol:FruitTreeNFT",
        "label": "_owners",
        "offset": 0,
        "slot": "2",
        "type": "t_mapping(t_uint256,t_address)"
      },
      {
        "astId": 359,
        "contract": "contracts/TreeNFT.sol:FruitTreeNFT",
        "label": "_balances",
        "offset": 0,
        "slot": "3",
        "type": "t_mapping(t_address,t_uint256)"
      },
      {
        "astId": 363,
        "contract": "contracts/TreeNFT.sol:FruitTreeNFT",
        "label": "_tokenApprovals",
        "offset": 0,
        "slot": "4",
        "type": "t_mapping(t_uint256,t_address)"
      },
      {
        "astId": 369,
        "contract": "contracts/TreeNFT.sol:FruitTreeNFT",
        "label": "_operatorApprovals",
        "offset": 0,
        "slot": "5",
        "type": "t_mapping(t_address,t_mapping(t_address,t_bool))"
      },
      {
        "astId": 1488,
        "contract": "contracts/TreeNFT.sol:FruitTreeNFT",
        "label": "_tokenURIs",
        "offset": 0,
        "slot": "6",
        "type": "t_mapping(t_uint256,t_string_storage)"
      },
      {
        "astId": 8,
        "contract": "contracts/TreeNFT.sol:FruitTreeNFT",
        "label": "_owner",
        "offset": 0,
        "slot": "7",
        "type": "t_address"
      },
      {
        "astId": 1655,
        "contract": "contracts/TreeNFT.sol:FruitTreeNFT",
        "label": "_status",
        "offset": 0,
        "slot": "8",
        "type": "t_uint256"
      },
      {
        "astId": 3177,
        "contract": "contracts/TreeNFT.sol:FruitTreeNFT",
        "label": "nextTokenId",
        "offset": 0,
        "slot": "9",
        "type": "t_uint256"
      },
      {
        "astId": 3240,
        "contract": "contracts/TreeNFT.sol:FruitTreeNFT",
        "label": "treeTypeInfo",
        "offset": 0,
        "slot": "10",
        "type": "t_mapping(t_enum(TreeType)3183,t_struct(TreeInfo)3192_storage)"
      },
      {
        "astId": 3245,
        "contract": "contracts/TreeNFT.sol:FruitTreeNFT",
        "label": "trees",
        "offset": 0,
        "slot": "11",
        "type": "t_mapping(t_uint256,t_struct(Tree)3202_storage)"
      },
      {
        "astId": 3249,
        "contract": "contracts/TreeNFT.sol:FruitTreeNFT",
        "label": "ownerTreeCount",
        "offset": 0,
        "slot": "12",
        "type": "t_mapping(t_address,t_uint256)"
      },
      {
        "astId": 3253,
        "contract": "contracts/TreeNFT.sol:FruitTreeNFT",
        "label": "isListed",
        "offset": 0,
        "slot": "13",
        "type": "t_mapping(t_uint256,t_bool)"
      },
      {
        "astId": 3258,
        "contract": "contracts/TreeNFT.sol:FruitTreeNFT",
        "label": "listings",
        "offset": 0,
        "slot": "14",
        "type": "t_mapping(t_uint256,t_struct(Listing)3213_storage)"
      },
      {
        "astId": 3266,
        "contract": "contracts/TreeNFT.sol:FruitTreeNFT",
        "label": "sellerTreesByType",
        "offset": 0,
        "slot": "15",
        "type": "t_mapping(t_address,t_mapping(t_enum(TreeType)3183,t_array(t_uint256)dyn_storage))"
      },
      {
        "astId": 3272,
        "contract": "contracts/TreeNFT.sol:FruitTreeNFT",
        "label": "sellerActiveTreeTypes",
        "offset": 0,
        "slot": "16",
        "type": "t_mapping(t_address,t_array(t_enum(TreeType)3183)dyn_storage)"
      },
      {
        "astId": 3276,
        "contract": "contracts/TreeNFT.sol:FruitTreeNFT",
        "label": "hasActiveListings",
        "offset": 0,
        "slot": "17",
        "type": "t_mapping(t_address,t_bool)"
      },
      {
        "astId": 3279,
        "contract": "contracts/TreeNFT.sol:FruitTreeNFT",
        "label": "activeListings",
        "offset": 0,
        "slot": "18",
        "type": "t_array(t_uint256)dyn_storage"
      }
    ],
    "types": {
      "t_address": {
        "encoding": "inplace",
        "label": "address",
        "numberOfBytes": "20"
      },
      "t_array(t_enum(TreeType)3183)dyn_storage": {
        "base": "t_enum(TreeType)3183",
        "encoding": "dynamic_array",
        "label": "enum FruitTreeNFT.TreeType[]",
        "numberOfBytes": "32"
      },
      "t_array(t_uint256)dyn_storage": {
        "base": "t_uint256",
        "encoding": "dynamic_array",
        "label": "uint256[]",
        "numberOfBytes": "32"
      },
      "t_bool": {
        "encoding": "inplace",
        "label": "bool",
        "numberOfBytes": "1"
      },
      "t_enum(TreeType)3183": {
        "encoding": "inplace",
        "label": "enum FruitTreeNFT.TreeType",
        "numberOfBytes": "1"
      },
      "t_mapping(t_address,t_array(t_enum(TreeType)3183)dyn_storage)": {
        "encoding": "mapping",
        "key": "t_address",
        "label": "mapping(address => enum FruitTreeNFT.TreeType[])",
        "numberOfBytes": "32",
        "value": "t_array(t_enum(TreeType)3183)dyn_storage"
      },
      "t_mapping(t_address,t_bool)": {
        "encoding": "mapping",
        "key": "t_address",
        "label": "mapping(address => bool)",
        "numberOfBytes": "32",
        "value": "t_bool"
      },
      "t_mapping(t_address,t_mapping(t_address,t_bool))": {
        "encoding": "mapping",
        "key": "t_address",
        "label": "mapping(address => mapping(address => bool))",
        "numberOfBytes": "32",
        "value": "t_mapping(t_address,t_bool)"
      },
      "t_mapping(t_address,t_mapping(t_enum(TreeType)3183,t_array(t_uint256)dyn_storage))": {
        "encoding": "mapping",
        "key": "t_address",
        "label": "mapping(address => mapping(enum FruitTreeNFT.TreeType => uint256[]))",
        "numberOfBytes": "32",
        "value": "t_mapping(t_enum(TreeType)3183,t_array(t_uint256)dyn_storage)"
      },
      "t_mapping(t_address,t_uint256)": {
        "encoding": "mapping",
        "key": "t_address",
        "label": "mapping(address => uint256)",
        "numberOfBytes": "32",
        "value": "t_uint256"
      },
      "t_mapping(t_enum(TreeType)3183,t_array(t_uint256)dyn_storage)": {
        "encoding": "mapping",
        "key": "t_enum(TreeType)3183",
        "label": "mapping(enum FruitTreeNFT.TreeType => uint256[])",
        "numberOfBytes": "32",
        "value": "t_array(t_uint256)dyn_storage"
      },
      "t_mapping(t_enum(TreeType)3183,t_struct(TreeInfo)3192_storage)": {
        "encoding": "mapping",
        "key": "t_enum(TreeType)3183",
        "label": "mapping(enum FruitTreeNFT.TreeType => struct FruitTreeNFT.TreeInfo)",
        "numberOfBytes": "32",
        "value": "t_struct(TreeInfo)3192_storage"
      },
      "t_mapping(t_uint256,t_address)": {
        "encoding": "mapping",
        "key": "t_uint256",
        "label": "mapping(uint256 => address)",
        "numberOfBytes": "32",
        "value": "t_address"
      },
      "t_mapping(t_uint256,t_bool)": {
        "encoding": "mapping",
        "key": "t_uint256",
        "label": "mapping(uint256 => bool)",
        "numberOfBytes": "32",
        "value": "t_bool"
      },
      "t_mapping(t_uint256,t_string_storage)": {
        "encoding": "mapping",
        "key": "t_uint256",
        "label": "mapping(uint256 => string)",
        "numberOfBytes": "32",
        "value": "t_string_storage"
      },
      "t_mapping(t_uint256,t_struct(Listing)3213_storage)": {
        "encoding": "mapping",
        "key": "t_uint256",
        "label": "mapping(uint256 => struct FruitTreeNFT.Listing)",
        "numberOfBytes": "32",
        "value": "t_struct(Listing)3213_storage"
      },
      "t_mapping(t_uint256,t_struct(Tree)3202_storage)": {
        "encoding": "mapping",
        "key": "t_uint256",
        "label": "mapping(uint256 => struct FruitTreeNFT.Tree)",
        "numberOfBytes": "32",
        "value": "t_struct(Tree)3202_storage"
      },
      "t_string_storage": {
        "encoding": "bytes",
        "label": "string",
        "numberOfBytes": "32"
      },
      "t_struct(Listing)3213_storage": {
        "encoding": "inplace",
        "label": "struct FruitTreeNFT.Listing",
        "members": [
          {
            "astId": 3204,
            "contract": "contracts/TreeNFT.sol:FruitTreeNFT",
            "label": "tokenId",
            "offset": 0,
            "slot": "0",
            "type": "t_uint256"
          },
          {
            "astId": 3206,
            "contract": "contracts/TreeNFT.sol:FruitTreeNFT",
            "label": "seller",
            "offset": 0,
            "slot": "1",
            "type": "t_address"
          },
          {
            "astId": 3208,
            "contract": "contracts/TreeNFT.sol:FruitTreeNFT",
            "label": "listingTime",
            "offset": 0,
            "slot": "2",
            "type": "t_uint256"
          },
          {
            "astId": 3210,
            "contract": "contracts/TreeNFT.sol:FruitTreeNFT",
            "label": "price",
            "offset": 0,
            "slot": "3",
            "type": "t_uint256"
          },
          {
            "astId": 3212,
            "contract": "contracts/TreeNFT.sol:FruitTreeNFT",
            "label": "isActive",
            "offset": 0,
            "slot": "4",
            "type": "t_bool"
          }
        ],
        "numberOfBytes": "160"
      },
      "t_struct(Tree)3202_storage": {
        "encoding": "inplace",
        "label": "struct FruitTreeNFT.Tree",
        "members": [
          {
            "astId": 3195,
            "contract": "contracts/TreeNFT.sol:FruitTreeNFT",
            "label": "treeType",
            "offset": 0,
            "slot": "0",
            "type": "t_enum(TreeType)3183"
          },
          {
            "astId": 3197,
            "contract": "contracts/TreeNFT.sol:FruitTreeNFT",
            "label": "mintTime",
            "offset": 0,
            "slot": "1",
            "type": "t_uint256"
          },
          {
            "astId": 3199,
            "contract": "contracts/TreeNFT.sol:FruitTreeNFT",
            "label": "initialPrice",
            "offset": 0,
            "slot": "2",
            "type": "t_uint256"
          },
          {
            "astId": 3201,
            "contract": "contracts/TreeNFT.sol:FruitTreeNFT",
            "label": "owner",
            "offset": 0,
            "slot": "3",
            "type": "t_address"
          }
        ],
        "numberOfBytes": "128"
      },
      "t_struct(TreeInfo)3192_storage": {
        "encoding": "inplace",
        "label": "struct FruitTreeNFT.TreeInfo",
        "members": [
          {
            "astId": 3185,
            "contract": "contracts/TreeNFT.sol:FruitTreeNFT",
            "label": "name",
            "offset": 0,
            "slot": "0",
            "type": "t_string_storage"
          },
          {
            "astId": 3187,
            "contract": "contracts/TreeNFT.sol:FruitTreeNFT",
            "label": "basePrice",
            "offset": 0,
            "slot": "1",
            "type": "t_uint256"
          },
          {
            "astId": 3189,
            "contract": "contracts/TreeNFT.sol:FruitTreeNFT",
            "label": "baseAppreciation",
            "offset": 0,
            "slot": "2",
            "type": "t_uint256"
          },
          {
            "astId": 3191,
            "contract": "contracts/TreeNFT.sol:FruitTreeNFT",
            "label": "produceAppreciation",
            "offset": 0,
            "slot": "3",
            "type": "t_uint256"
          }
        ],
        "numberOfBytes": "128"
      },
      "t_uint256": {
        "encoding": "inplace",
        "label": "uint256",
        "numberOfBytes": "32"
      }
    }
  }
}