{
  "address": "0x01E0A6bB384C65DF84746fA6D95F3e5f774Fe8d1",
  "abi": [
    {
      "inputs": [],
      "stateMutability": "nonpayable",
      "type": "constructor"
    },
    {
      "inputs": [
        {
          "internalType": "address",
          "name": "sender",
          "type": "address"
        },
        {
          "internalType": "uint256",
          "name": "tokenId",
          "type": "uint256"
        },
        {
          "internalType": "address",
          "name": "owner",
          "type": "address"
        }
      ],
      "name": "ERC721IncorrectOwner",
      "type": "error"
    },
    {
      "inputs": [
        {
          "internalType": "address",
          "name": "operator",
          "type": "address"
        },
        {
          "internalType": "uint256",
          "name": "tokenId",
          "type": "uint256"
        }
      ],
      "name": "ERC721InsufficientApproval",
      "type": "error"
    },
    {
      "inputs": [
        {
          "internalType": "address",
          "name": "approver",
          "type": "address"
        }
      ],
      "name": "ERC721InvalidApprover",
      "type": "error"
    },
    {
      "inputs": [
        {
          "internalType": "address",
          "name": "operator",
          "type": "address"
        }
      ],
      "name": "ERC721InvalidOperator",
      "type": "error"
    },
    {
      "inputs": [
        {
          "internalType": "address",
          "name": "owner",
          "type": "address"
        }
      ],
      "name": "ERC721InvalidOwner",
      "type": "error"
    },
    {
      "inputs": [
        {
          "internalType": "address",
          "name": "receiver",
          "type": "address"
        }
      ],
      "name": "ERC721InvalidReceiver",
      "type": "error"
    },
    {
      "inputs": [
        {
          "internalType": "address",
          "name": "sender",
          "type": "address"
        }
      ],
      "name": "ERC721InvalidSender",
      "type": "error"
    },
    {
      "inputs": [
        {
          "internalType": "uint256",
          "name": "tokenId",
          "type": "uint256"
        }
      ],
      "name": "ERC721NonexistentToken",
      "type": "error"
    },
    {
      "inputs": [
        {
          "internalType": "address",
          "name": "owner",
          "type": "address"
        }
      ],
      "name": "OwnableInvalidOwner",
      "type": "error"
    },
    {
      "inputs": [
        {
          "internalType": "address",
          "name": "account",
          "type": "address"
        }
      ],
      "name": "OwnableUnauthorizedAccount",
      "type": "error"
    },
    {
      "inputs": [],
      "name": "ReentrancyGuardReentrantCall",
      "type": "error"
    },
    {
      "anonymous": false,
      "inputs": [
        {
          "indexed": true,
          "internalType": "address",
          "name": "owner",
          "type": "address"
        },
        {
          "indexed": true,
          "internalType": "address",
          "name": "approved",
          "type": "address"
        },
        {
          "indexed": true,
          "internalType": "uint256",
          "name": "tokenId",
          "type": "uint256"
        }
      ],
      "name": "Approval",
      "type": "event"
    },
    {
      "anonymous": false,
      "inputs": [
        {
          "indexed": true,
          "internalType": "address",
          "name": "owner",
          "type": "address"
        },
        {
          "indexed": true,
          "internalType": "address",
          "name": "operator",
          "type": "address"
        },
        {
          "indexed": false,
          "internalType": "bool",
          "name": "approved",
          "type": "bool"
        }
      ],
      "name": "ApprovalForAll",
      "type": "event"
    },
    {
      "anonymous": false,
      "inputs": [
        {
          "indexed": false,
          "internalType": "uint256",
          "name": "_fromTokenId",
          "type": "uint256"
        },
        {
          "indexed": false,
          "internalType": "uint256",
          "name": "_toTokenId",
          "type": "uint256"
        }
      ],
      "name": "BatchMetadataUpdate",
      "type": "event"
    },
    {
      "anonymous": false,
      "inputs": [
        {
          "indexed": false,
          "internalType": "uint256[]",
          "name": "tokenIds",
          "type": "uint256[]"
        },
        {
          "indexed": true,
          "internalType": "address",
          "name": "seller",
          "type": "address"
        }
      ],
      "name": "ListingsCancelled",
      "type": "event"
    },
    {
      "anonymous": false,
      "inputs": [
        {
          "indexed": false,
          "internalType": "uint256",
          "name": "_tokenId",
          "type": "uint256"
        }
      ],
      "name": "MetadataUpdate",
      "type": "event"
    },
    {
      "anonymous": false,
      "inputs": [
        {
          "indexed": true,
          "internalType": "address",
          "name": "previousOwner",
          "type": "address"
        },
        {
          "indexed": true,
          "internalType": "address",
          "name": "newOwner",
          "type": "address"
        }
      ],
      "name": "OwnershipTransferred",
      "type": "event"
    },
    {
      "anonymous": false,
      "inputs": [
        {
          "indexed": true,
          "internalType": "address",
          "name": "from",
          "type": "address"
        },
        {
          "indexed": true,
          "internalType": "address",
          "name": "to",
          "type": "address"
        },
        {
          "indexed": true,
          "internalType": "uint256",
          "name": "tokenId",
          "type": "uint256"
        }
      ],
      "name": "Transfer",
      "type": "event"
    },
    {
      "anonymous": false,
      "inputs": [
        {
          "indexed": true,
          "internalType": "uint256",
          "name": "tokenId",
          "type": "uint256"
        },
        {
          "indexed": true,
          "internalType": "address",
          "name": "owner",
          "type": "address"
        },
        {
          "indexed": false,
          "internalType": "enum FruitTreeNFT.TreeType",
          "name": "treeType",
          "type": "uint8"
        },
        {
          "indexed": false,
          "internalType": "uint256",
          "name": "price",
          "type": "uint256"
        }
      ],
      "name": "TreeMinted",
      "type": "event"
    },
    {
      "anonymous": false,
      "inputs": [
        {
          "indexed": false,
          "internalType": "uint256[]",
          "name": "tokenIds",
          "type": "uint256[]"
        },
        {
          "indexed": true,
          "internalType": "address",
          "name": "seller",
          "type": "address"
        }
      ],
      "name": "TreesListed",
      "type": "event"
    },
    {
      "anonymous": false,
      "inputs": [
        {
          "indexed": false,
          "internalType": "uint256[]",
          "name": "tokenIds",
          "type": "uint256[]"
        },
        {
          "indexed": true,
          "internalType": "address",
          "name": "seller",
          "type": "address"
        },
        {
          "indexed": true,
          "internalType": "address",
          "name": "buyer",
          "type": "address"
        },
        {
          "indexed": false,
          "internalType": "uint256",
          "name": "totalPrice",
          "type": "uint256"
        }
      ],
      "name": "TreesSold",
      "type": "event"
    },
    {
      "inputs": [
        {
          "internalType": "uint256",
          "name": "",
          "type": "uint256"
        }
      ],
      "name": "activeListings",
      "outputs": [
        {
          "internalType": "uint256",
          "name": "",
          "type": "uint256"
        }
      ],
      "stateMutability": "view",
      "type": "function"
    },
    {
      "inputs": [
        {
          "internalType": "address",
          "name": "to",
          "type": "address"
        },
        {
          "internalType": "uint256",
          "name": "tokenId",
          "type": "uint256"
        }
      ],
      "name": "approve",
      "outputs": [],
      "stateMutability": "nonpayable",
      "type": "function"
    },
    {
      "inputs": [
        {
          "internalType": "address",
          "name": "owner",
          "type": "address"
        }
      ],
      "name": "balanceOf",
      "outputs": [
        {
          "internalType": "uint256",
          "name": "",
          "type": "uint256"
        }
      ],
      "stateMutability": "view",
      "type": "function"
    },
    {
      "inputs": [
        {
          "internalType": "address",
          "name": "seller",
          "type": "address"
        },
        {
          "internalType": "enum FruitTreeNFT.TreeType",
          "name": "treeType",
          "type": "uint8"
        },
        {
          "internalType": "uint256",
          "name": "quantity",
          "type": "uint256"
        }
      ],
      "name": "buyTreesFromSeller",
      "outputs": [],
      "stateMutability": "payable",
      "type": "function"
    },
    {
      "inputs": [
        {
          "internalType": "uint256[]",
          "name": "tokenIds",
          "type": "uint256[]"
        }
      ],
      "name": "cancelListings",
      "outputs": [],
      "stateMutability": "nonpayable",
      "type": "function"
    },
    {
      "inputs": [],
      "name": "emergencyWithdraw",
      "outputs": [],
      "stateMutability": "nonpayable",
      "type": "function"
    },
    {
      "inputs": [],
      "name": "fundContract",
      "outputs": [],
      "stateMutability": "payable",
      "type": "function"
    },
    {
      "inputs": [],
      "name": "getAllSellersWithListings",
      "outputs": [
        {
          "internalType": "address[]",
          "name": "sellers",
          "type": "address[]"
        }
      ],
      "stateMutability": "view",
      "type": "function"
    },
    {
      "inputs": [],
      "name": "getAllTreeTypes",
      "outputs": [
        {
          "internalType": "uint8[]",
          "name": "treeTypes",
          "type": "uint8[]"
        },
        {
          "internalType": "string[]",
          "name": "names",
          "type": "string[]"
        },
        {
          "internalType": "uint256[]",
          "name": "basePrices",
          "type": "uint256[]"
        },
        {
          "internalType": "uint256[]",
          "name": "currentPrices",
          "type": "uint256[]"
        },
        {
          "internalType": "uint256[]",
          "name": "baseAppreciations",
          "type": "uint256[]"
        },
        {
          "internalType": "uint256[]",
          "name": "produceAppreciations",
          "type": "uint256[]"
        }
      ],
      "stateMutability": "view",
      "type": "function"
    },
    {
      "inputs": [
        {
          "internalType": "uint256",
          "name": "tokenId",
          "type": "uint256"
        }
      ],
      "name": "getApproved",
      "outputs": [
        {
          "internalType": "address",
          "name": "",
          "type": "address"
        }
      ],
      "stateMutability": "view",
      "type": "function"
    },
    {
      "inputs": [
        {
          "internalType": "enum FruitTreeNFT.TreeType",
          "name": "_treeType",
          "type": "uint8"
        }
      ],
      "name": "getCurrentTreePrice",
      "outputs": [
        {
          "internalType": "uint256",
          "name": "",
          "type": "uint256"
        }
      ],
      "stateMutability": "view",
      "type": "function"
    },
    {
      "inputs": [],
      "name": "getMarketplaceGroupedData",
      "outputs": [
        {
          "components": [
            {
              "internalType": "address",
              "name": "seller",
              "type": "address"
            },
            {
              "internalType": "enum FruitTreeNFT.TreeType",
              "name": "treeType",
              "type": "uint8"
            },
            {
              "internalType": "uint256",
              "name": "quantity",
              "type": "uint256"
            },
            {
              "internalType": "uint256",
              "name": "averagePrice",
              "type": "uint256"
            },
            {
              "internalType": "uint256[]",
              "name": "tokenIds",
              "type": "uint256[]"
            }
          ],
          "internalType": "struct FruitTreeNFT.MarketplaceGroup[]",
          "name": "groups",
          "type": "tuple[]"
        }
      ],
      "stateMutability": "view",
      "type": "function"
    },
    {
      "inputs": [
        {
          "internalType": "address",
          "name": "owner",
          "type": "address"
        }
      ],
      "name": "getOwnerTreesByType",
      "outputs": [
        {
          "internalType": "enum FruitTreeNFT.TreeType[]",
          "name": "treeTypes",
          "type": "uint8[]"
        },
        {
          "internalType": "uint256[]",
          "name": "quantities",
          "type": "uint256[]"
        },
        {
          "internalType": "uint256[][]",
          "name": "tokenIdsByType",
          "type": "uint256[][]"
        },
        {
          "internalType": "uint256[][]",
          "name": "valuesByType",
          "type": "uint256[][]"
        }
      ],
      "stateMutability": "view",
      "type": "function"
    },
    {
      "inputs": [
        {
          "internalType": "address",
          "name": "seller",
          "type": "address"
        }
      ],
      "name": "getSellerListingsSummary",
      "outputs": [
        {
          "components": [
            {
              "internalType": "enum FruitTreeNFT.TreeType",
              "name": "treeType",
              "type": "uint8"
            },
            {
              "internalType": "uint256",
              "name": "quantity",
              "type": "uint256"
            },
            {
              "internalType": "uint256",
              "name": "averagePrice",
              "type": "uint256"
            }
          ],
          "internalType": "struct FruitTreeNFT.SellerSummary[]",
          "name": "summary",
          "type": "tuple[]"
        }
      ],
      "stateMutability": "view",
      "type": "function"
    },
    {
      "inputs": [
        {
          "internalType": "address",
          "name": "seller",
          "type": "address"
        },
        {
          "internalType": "enum FruitTreeNFT.TreeType",
          "name": "treeType",
          "type": "uint8"
        }
      ],
      "name": "getSellerTreesByType",
      "outputs": [
        {
          "internalType": "uint256[]",
          "name": "tokenIds",
          "type": "uint256[]"
        },
        {
          "internalType": "uint256[]",
          "name": "prices",
          "type": "uint256[]"
        },
        {
          "internalType": "uint256[]",
          "name": "listingTimes",
          "type": "uint256[]"
        }
      ],
      "stateMutability": "view",
      "type": "function"
    },
    {
      "inputs": [
        {
          "internalType": "uint256",
          "name": "tokenId",
          "type": "uint256"
        }
      ],
      "name": "getTreeDetails",
      "outputs": [
        {
          "internalType": "string",
          "name": "treeName",
          "type": "string"
        },
        {
          "internalType": "uint256",
          "name": "currentValue",
          "type": "uint256"
        },
        {
          "internalType": "uint256",
          "name": "mintTime",
          "type": "uint256"
        },
        {
          "internalType": "address",
          "name": "treeOwner",
          "type": "address"
        }
      ],
      "stateMutability": "view",
      "type": "function"
    },
    {
      "inputs": [
        {
          "internalType": "address",
          "name": "_owner",
          "type": "address"
        }
      ],
      "name": "getTreeDetailsByOwner",
      "outputs": [
        {
          "internalType": "uint256[]",
          "name": "tokenIds",
          "type": "uint256[]"
        },
        {
          "internalType": "string[]",
          "name": "treeNames",
          "type": "string[]"
        },
        {
          "internalType": "uint256[]",
          "name": "currentValues",
          "type": "uint256[]"
        },
        {
          "internalType": "uint256[]",
          "name": "mintTimes",
          "type": "uint256[]"
        }
      ],
      "stateMutability": "view",
      "type": "function"
    },
    {
      "inputs": [
        {
          "internalType": "enum FruitTreeNFT.TreeType",
          "name": "_treeType",
          "type": "uint8"
        }
      ],
      "name": "getTreeTypeInfo",
      "outputs": [
        {
          "components": [
            {
              "internalType": "string",
              "name": "name",
              "type": "string"
            },
            {
              "internalType": "uint256",
              "name": "basePrice",
              "type": "uint256"
            },
            {
              "internalType": "uint256",
              "name": "baseAppreciation",
              "type": "uint256"
            },
            {
              "internalType": "uint256",
              "name": "produceAppreciation",
              "type": "uint256"
            }
          ],
          "internalType": "struct FruitTreeNFT.TreeInfo",
          "name": "",
          "type": "tuple"
        }
      ],
      "stateMutability": "view",
      "type": "function"
    },
    {
      "inputs": [
        {
          "internalType": "uint256",
          "name": "tokenId",
          "type": "uint256"
        }
      ],
      "name": "getTreeValue",
      "outputs": [
        {
          "internalType": "uint256",
          "name": "",
          "type": "uint256"
        }
      ],
      "stateMutability": "view",
      "type": "function"
    },
    {
      "inputs": [
        {
          "internalType": "address",
          "name": "",
          "type": "address"
        }
      ],
      "name": "hasActiveListings",
      "outputs": [
        {
          "internalType": "bool",
          "name": "",
          "type": "bool"
        }
      ],
      "stateMutability": "view",
      "type": "function"
    },
    {
      "inputs": [
        {
          "internalType": "address",
          "name": "owner",
          "type": "address"
        },
        {
          "internalType": "address",
          "name": "operator",
          "type": "address"
        }
      ],
      "name": "isApprovedForAll",
      "outputs": [
        {
          "internalType": "bool",
          "name": "",
          "type": "bool"
        }
      ],
      "stateMutability": "view",
      "type": "function"
    },
    {
      "inputs": [
        {
          "internalType": "uint256",
          "name": "",
          "type": "uint256"
        }
      ],
      "name": "isListed",
      "outputs": [
        {
          "internalType": "bool",
          "name": "",
          "type": "bool"
        }
      ],
      "stateMutability": "view",
      "type": "function"
    },
    {
      "inputs": [
        {
          "internalType": "uint256[]",
          "name": "tokenIds",
          "type": "uint256[]"
        }
      ],
      "name": "listTreesForSale",
      "outputs": [],
      "stateMutability": "nonpayable",
      "type": "function"
    },
    {
      "inputs": [
        {
          "internalType": "uint256",
          "name": "",
          "type": "uint256"
        }
      ],
      "name": "listings",
      "outputs": [
        {
          "internalType": "uint256",
          "name": "tokenId",
          "type": "uint256"
        },
        {
          "internalType": "address",
          "name": "seller",
          "type": "address"
        },
        {
          "internalType": "uint256",
          "name": "listingTime",
          "type": "uint256"
        },
        {
          "internalType": "uint256",
          "name": "price",
          "type": "uint256"
        },
        {
          "internalType": "bool",
          "name": "isActive",
          "type": "bool"
        }
      ],
      "stateMutability": "view",
      "type": "function"
    },
    {
      "inputs": [
        {
          "internalType": "enum FruitTreeNFT.TreeType",
          "name": "_treeType",
          "type": "uint8"
        },
        {
          "internalType": "string",
          "name": "tokenURI",
          "type": "string"
        }
      ],
      "name": "mintTree",
      "outputs": [],
      "stateMutability": "payable",
      "type": "function"
    },
    {
      "inputs": [],
      "name": "name",
      "outputs": [
        {
          "internalType": "string",
          "name": "",
          "type": "string"
        }
      ],
      "stateMutability": "view",
      "type": "function"
    },
    {
      "inputs": [],
      "name": "nextTokenId",
      "outputs": [
        {
          "internalType": "uint256",
          "name": "",
          "type": "uint256"
        }
      ],
      "stateMutability": "view",
      "type": "function"
    },
    {
      "inputs": [],
      "name": "owner",
      "outputs": [
        {
          "internalType": "address",
          "name": "",
          "type": "address"
        }
      ],
      "stateMutability": "view",
      "type": "function"
    },
    {
      "inputs": [
        {
          "internalType": "uint256",
          "name": "tokenId",
          "type": "uint256"
        }
      ],
      "name": "ownerOf",
      "outputs": [
        {
          "internalType": "address",
          "name": "",
          "type": "address"
        }
      ],
      "stateMutability": "view",
      "type": "function"
    },
    {
      "inputs": [
        {
          "internalType": "address",
          "name": "",
          "type": "address"
        }
      ],
      "name": "ownerTreeCount",
      "outputs": [
        {
          "internalType": "uint256",
          "name": "",
          "type": "uint256"
        }
      ],
      "stateMutability": "view",
      "type": "function"
    },
    {
      "inputs": [],
      "name": "renounceOwnership",
      "outputs": [],
      "stateMutability": "nonpayable",
      "type": "function"
    },
    {
      "inputs": [
        {
          "internalType": "address",
          "name": "from",
          "type": "address"
        },
        {
          "internalType": "address",
          "name": "to",
          "type": "address"
        },
        {
          "internalType": "uint256",
          "name": "tokenId",
          "type": "uint256"
        }
      ],
      "name": "safeTransferFrom",
      "outputs": [],
      "stateMutability": "nonpayable",
      "type": "function"
    },
    {
      "inputs": [
        {
          "internalType": "address",
          "name": "from",
          "type": "address"
        },
        {
          "internalType": "address",
          "name": "to",
          "type": "address"
        },
        {
          "internalType": "uint256",
          "name": "tokenId",
          "type": "uint256"
        },
        {
          "internalType": "bytes",
          "name": "data",
          "type": "bytes"
        }
      ],
      "name": "safeTransferFrom",
      "outputs": [],
      "stateMutability": "nonpayable",
      "type": "function"
    },
    {
      "inputs": [
        {
          "internalType": "address",
          "name": "",
          "type": "address"
        },
        {
          "internalType": "uint256",
          "name": "",
          "type": "uint256"
        }
      ],
      "name": "sellerActiveTreeTypes",
      "outputs": [
        {
          "internalType": "enum FruitTreeNFT.TreeType",
          "name": "",
          "type": "uint8"
        }
      ],
      "stateMutability": "view",
      "type": "function"
    },
    {
      "inputs": [
        {
          "internalType": "address",
          "name": "",
          "type": "address"
        },
        {
          "internalType": "enum FruitTreeNFT.TreeType",
          "name": "",
          "type": "uint8"
        },
        {
          "internalType": "uint256",
          "name": "",
          "type": "uint256"
        }
      ],
      "name": "sellerTreesByType",
      "outputs": [
        {
          "internalType": "uint256",
          "name": "",
          "type": "uint256"
        }
      ],
      "stateMutability": "view",
      "type": "function"
    },
    {
      "inputs": [
        {
          "internalType": "address",
          "name": "operator",
          "type": "address"
        },
        {
          "internalType": "bool",
          "name": "approved",
          "type": "bool"
        }
      ],
      "name": "setApprovalForAll",
      "outputs": [],
      "stateMutability": "nonpayable",
      "type": "function"
    },
    {
      "inputs": [
        {
          "internalType": "bytes4",
          "name": "interfaceId",
          "type": "bytes4"
        }
      ],
      "name": "supportsInterface",
      "outputs": [
        {
          "internalType": "bool",
          "name": "",
          "type": "bool"
        }
      ],
      "stateMutability": "view",
      "type": "function"
    },
    {
      "inputs": [],
      "name": "symbol",
      "outputs": [
        {
          "internalType": "string",
          "name": "",
          "type": "string"
        }
      ],
      "stateMutability": "view",
      "type": "function"
    },
    {
      "inputs": [
        {
          "internalType": "uint256",
          "name": "tokenId",
          "type": "uint256"
        }
      ],
      "name": "tokenURI",
      "outputs": [
        {
          "internalType": "string",
          "name": "",
          "type": "string"
        }
      ],
      "stateMutability": "view",
      "type": "function"
    },
    {
      "inputs": [
        {
          "internalType": "address",
          "name": "from",
          "type": "address"
        },
        {
          "internalType": "address",
          "name": "to",
          "type": "address"
        },
        {
          "internalType": "uint256",
          "name": "tokenId",
          "type": "uint256"
        }
      ],
      "name": "transferFrom",
      "outputs": [],
      "stateMutability": "nonpayable",
      "type": "function"
    },
    {
      "inputs": [
        {
          "internalType": "address",
          "name": "newOwner",
          "type": "address"
        }
      ],
      "name": "transferOwnership",
      "outputs": [],
      "stateMutability": "nonpayable",
      "type": "function"
    },
    {
      "inputs": [
        {
          "internalType": "enum FruitTreeNFT.TreeType",
          "name": "",
          "type": "uint8"
        }
      ],
      "name": "treeTypeInfo",
      "outputs": [
        {
          "internalType": "string",
          "name": "name",
          "type": "string"
        },
        {
          "internalType": "uint256",
          "name": "basePrice",
          "type": "uint256"
        },
        {
          "internalType": "uint256",
          "name": "baseAppreciation",
          "type": "uint256"
        },
        {
          "internalType": "uint256",
          "name": "produceAppreciation",
          "type": "uint256"
        }
      ],
      "stateMutability": "view",
      "type": "function"
    },
    {
      "inputs": [
        {
          "internalType": "uint256",
          "name": "",
          "type": "uint256"
        }
      ],
      "name": "trees",
      "outputs": [
        {
          "internalType": "enum FruitTreeNFT.TreeType",
          "name": "treeType",
          "type": "uint8"
        },
        {
          "internalType": "uint256",
          "name": "mintTime",
          "type": "uint256"
        },
        {
          "internalType": "uint256",
          "name": "initialPrice",
          "type": "uint256"
        },
        {
          "internalType": "address",
          "name": "owner",
          "type": "address"
        }
      ],
      "stateMutability": "view",
      "type": "function"
    },
    {
      "inputs": [
        {
          "internalType": "enum FruitTreeNFT.TreeType",
          "name": "_treeType",
          "type": "uint8"
        },
        {
          "internalType": "string",
          "name": "_name",
          "type": "string"
        },
        {
          "internalType": "uint256",
          "name": "_basePrice",
          "type": "uint256"
        },
        {
          "internalType": "uint256",
          "name": "_baseAppreciation",
          "type": "uint256"
        },
        {
          "internalType": "uint256",
          "name": "_produceAppreciation",
          "type": "uint256"
        }
      ],
      "name": "updateTreeTypeInfo",
      "outputs": [],
      "stateMutability": "nonpayable",
      "type": "function"
    },
    {
      "inputs": [],
      "name": "withdrawContractFunds",
      "outputs": [],
      "stateMutability": "nonpayable",
      "type": "function"
    },
    {
      "stateMutability": "payable",
      "type": "receive"
    }
  ],
  "transactionHash": "0x3e06d9b16ace1a74231e1b7d77ce08e174c87269984ed8b710e2056e8cd63280",
  "args": [],
  "numDeployments": 1,
  "solcInputHash": "e3d38ce10c4b7f141d1b183c63fa485a",
  "bytecode": "0x608060405260016009553480156200001657600080fd5b50336040518060400160405280600c81526020016b119c9d5a5d151c995953919560a21b81525060405180604001604052806005815260200164465452454560d81b81525081600090816200006c919062000527565b5060016200007b828262000527565b5050506001600160a01b038116620000ad57604051631e4fbdf760e01b81526000600482015260240160405180910390fd5b620000b88162000430565b5060016008556040805160c081018252600a60808201818152694d616e676f205472656560b01b60a0840152825266b1a2bc2ec50000602080840191909152600593830193909352600360608301526000805290915280517f13da86008ba1c6922daee3e07db95305ef49ebced9f5467a0b8613fcc6b343e390819062000140908262000527565b5060208201518160010155604082015181600201556060820151816003015590505060405180608001604052806040518060400160405280600c81526020016b436f636f6e7574205472656560a01b815250815260200167011c37937e0800008152602001600581526020016002815250600a600060016004811115620001cb57620001cb620005f3565b6004811115620001df57620001df620005f3565b8152602081019190915260400160002081518190620001ff908262000527565b5060208201518160010155604082015181600201556060820151816003015590505060405180608001604052806040518060400160405280600a8152602001694775617661205472656560b01b8152508152602001660aa87bee5380008152602001600581526020016004815250600a600060026004811115620002875762000287620005f3565b60048111156200029b576200029b620005f3565b8152602081019190915260400160002081518190620002bb908262000527565b5060208281015160018301556040808401516002840155606093840151600393840155805160c081018252600d608082019081526c52616d627574616e205472656560981b60a08301528152668e1bc9bf04000081840152600591810191909152928301829052600091909152600a905280517fa856840544dc26124927add067d799967eac11be13e14d82cc281ea46fa397599081906200035e908262000527565b506020828101516001830155604080840151600280850191909155606094850151600390940193909355805160c081018252600e608082019081526d4a61636b6672756974205472656560901b60a0830152815266d529ae9e86000081840152600591810191909152928301919091526004600052600a905280517fe1eb2b2161a492c07c5a334e48012567cba93ec021043f53c1955516a3c5a84190819062000409908262000527565b50602082015160018201556040820151600282015560609091015160039091015562000609565b600780546001600160a01b038381166001600160a01b0319831681179093556040519116919082907f8be0079c531659141344cd1fd0a4f28419497f9722a3daafe3b4186f6b6457e090600090a35050565b634e487b7160e01b600052604160045260246000fd5b600181811c90821680620004ad57607f821691505b602082108103620004ce57634e487b7160e01b600052602260045260246000fd5b50919050565b601f8211156200052257600081815260208120601f850160051c81016020861015620004fd5750805b601f850160051c820191505b818110156200051e5782815560010162000509565b5050505b505050565b81516001600160401b0381111562000543576200054362000482565b6200055b8162000554845462000498565b84620004d4565b602080601f8311600181146200059357600084156200057a5750858301515b600019600386901b1c1916600185901b1785556200051e565b600085815260208120601f198616915b82811015620005c457888601518255948401946001909101908401620005a3565b5085821015620005e35787850151600019600388901b60f8161c191681555b5050505050600190811b01905550565b634e487b7160e01b600052602160045260246000fd5b61592380620006196000396000f3fe6080604052600436106102765760003560e01c80637a69c0891161014f578063c87b56dd116100c1578063e985e9c51161007a578063e985e9c514610863578063ec0bbf9314610883578063eee51b21146108b0578063f2fde38b146108dd578063f5d63c7d146108fd578063fcce48831461091d57600080fd5b8063c87b56dd1461073e578063c9e292691461075e578063d876abaa1461077e578063db2e21bc1461079e578063de74e57b146107b3578063e1ccc7681461083c57600080fd5b8063a22cb46511610113578063a22cb46514610691578063b4312736146106b1578063b51cb587146106c4578063b88d4fde146106f4578063babdb6c814610714578063bd097e211461073657600080fd5b80637a69c089146105d15780638da5cb5b146105fe57806395d89b411461061c5780639f085f4514610631578063a07a86031461066157600080fd5b80635207066c116101e8578063702ed135116101ac578063702ed135146104e557806370a0823114610505578063715018a61461052557806375794a3c1461053a57806376f32a70146105505780637a5080221461057257600080fd5b80635207066c1461043457806361cf4863146104475780636352211e1461047557806369cc2a14146104955780636a43f8ea146104c557600080fd5b806322f93c7b1161023a57806322f93c7b1461034857806323b872dd146103785780632505a1be146103985780632a1e141e146103c757806339f3dc5a146103f457806342842e0e1461041457600080fd5b806301ffc9a71461028257806306fdde03146102b7578063081812fc146102d9578063095ea7b314610311578063210094231461033357600080fd5b3661027d57005b600080fd5b34801561028e57600080fd5b506102a261029d366004614c48565b61094d565b60405190151581526020015b60405180910390f35b3480156102c357600080fd5b506102cc610978565b6040516102ae9190614cb5565b3480156102e557600080fd5b506102f96102f4366004614cc8565b610a0a565b6040516001600160a01b0390911681526020016102ae565b34801561031d57600080fd5b5061033161032c366004614cfd565b610a33565b005b34801561033f57600080fd5b50610331610a42565b34801561035457600080fd5b50610368610363366004614d27565b610b3a565b6040516102ae9493929190614dd5565b34801561038457600080fd5b50610331610393366004614e22565b610dce565b3480156103a457600080fd5b506103b86103b3366004614e6d565b610e59565b6040516102ae93929190614ea0565b3480156103d357600080fd5b506103e76103e2366004614ed9565b611187565b6040516102ae9190614ef4565b34801561040057600080fd5b5061033161040f366004614f3a565b6112a9565b34801561042057600080fd5b5061033161042f366004614e22565b611454565b610331610442366004614fae565b611474565b34801561045357600080fd5b50610467610462366004614cc8565b611918565b6040519081526020016102ae565b34801561048157600080fd5b506102f9610490366004614cc8565b611939565b3480156104a157600080fd5b506104b56104b0366004614cc8565b611944565b6040516102ae9493929190614fda565b3480156104d157600080fd5b506103316104e0366004614f3a565b611b2d565b3480156104f157600080fd5b50610467610500366004614cc8565b611e90565b34801561051157600080fd5b50610467610520366004614d27565b6120c9565b34801561053157600080fd5b50610331612111565b34801561054657600080fd5b5061046760095481565b34801561055c57600080fd5b50610565612125565b6040516102ae9190615012565b34801561057e57600080fd5b506105c161058d366004614cc8565b600b60205260009081526040902080546001820154600283015460039093015460ff9092169290916001600160a01b031684565b6040516102ae9493929190615097565b3480156105dd57600080fd5b506104676105ec366004614d27565b600c6020526000908152604090205481565b34801561060a57600080fd5b506007546001600160a01b03166102f9565b34801561062857600080fd5b506102cc61231a565b34801561063d57600080fd5b5061065161064c366004614d27565b612329565b6040516102ae949392919061511e565b34801561066d57600080fd5b5061068161067c366004614ed9565b61284d565b6040516102ae949392919061519b565b34801561069d57600080fd5b506103316106ac3660046151ca565b6128fd565b6103316106bf3660046152b1565b612908565b3480156106d057600080fd5b506102a26106df366004614d27565b60116020526000908152604090205460ff1681565b34801561070057600080fd5b5061033161070f3660046152fe565b612bdd565b34801561072057600080fd5b50610729612bf4565b6040516102ae9190615379565b61033161322e565b34801561074a57600080fd5b506102cc610759366004614cc8565b613236565b34801561076a57600080fd5b50610331610779366004615420565b613347565b34801561078a57600080fd5b50610467610799366004614fae565b6133dd565b3480156107aa57600080fd5b5061033161341b565b3480156107bf57600080fd5b5061080a6107ce366004614cc8565b600e602052600090815260409020805460018201546002830154600384015460049094015492936001600160a01b039092169290919060ff1685565b604080519586526001600160a01b0390941660208601529284019190915260608301521515608082015260a0016102ae565b34801561084857600080fd5b5061085161345f565b6040516102ae96959493929190615488565b34801561086f57600080fd5b506102a261087e366004615536565b613762565b34801561088f57600080fd5b506108a361089e366004614cfd565b613790565b6040516102ae9190615560565b3480156108bc57600080fd5b506108d06108cb366004614d27565b6137d3565b6040516102ae919061556e565b3480156108e957600080fd5b506103316108f8366004614d27565b613b14565b34801561090957600080fd5b50610467610918366004614ed9565b613b4f565b34801561092957600080fd5b506102a2610938366004614cc8565b600d6020526000908152604090205460ff1681565b60006001600160e01b03198216632483248360e11b1480610972575061097282613cb6565b92915050565b606060008054610987906155c1565b80601f01602080910402602001604051908101604052809291908181526020018280546109b3906155c1565b8015610a005780601f106109d557610100808354040283529160200191610a00565b820191906000526020600020905b8154815290600101906020018083116109e357829003601f168201915b5050505050905090565b6000610a1582613d06565b506000828152600460205260409020546001600160a01b0316610972565b610a3e828233613d3e565b5050565b610a4a613d4b565b4780610a945760405162461bcd60e51b81526020600482015260146024820152734e6f2066756e647320746f20776974686472617760601b60448201526064015b60405180910390fd5b6000610aa86007546001600160a01b031690565b6001600160a01b03168260405160006040518083038185875af1925050503d8060008114610af2576040519150601f19603f3d011682016040523d82523d6000602084013e610af7565b606091505b5050905080610a3e5760405162461bcd60e51b815260206004820152600f60248201526e15da5d1a191c985dc819985a5b1959608a1b6044820152606401610a8b565b6060808080600060015b600954811015610bab57866001600160a01b0316610b6182613d78565b6001600160a01b0316148015610b8657506000818152600d602052604090205460ff16155b15610b995781610b9581615611565b9250505b80610ba381615611565b915050610b44565b50806001600160401b03811115610bc457610bc4615206565b604051908082528060200260200182016040528015610bed578160200160208202803683370190505b509450806001600160401b03811115610c0857610c08615206565b604051908082528060200260200182016040528015610c3b57816020015b6060815260200190600190039081610c265790505b509350806001600160401b03811115610c5657610c56615206565b604051908082528060200260200182016040528015610c7f578160200160208202803683370190505b509250806001600160401b03811115610c9a57610c9a615206565b604051908082528060200260200182016040528015610cc3578160200160208202803683370190505b509150600060015b600954811015610dc457876001600160a01b0316610ce882613d78565b6001600160a01b0316148015610d0d57506000818152600d602052604090205460ff16155b15610db25780878381518110610d2557610d2561562a565b6020026020010181815250506000806000610d3f84611944565b5092509250925082898681518110610d5957610d5961562a565b602002602001018190525081888681518110610d7757610d7761562a565b60200260200101818152505080878681518110610d9657610d9661562a565b602090810291909101015284610dab81615611565b9550505050505b80610dbc81615611565b915050610ccb565b5050509193509193565b6001600160a01b038216610df857604051633250574960e11b815260006004820152602401610a8b565b6000610e05838333613d93565b9050836001600160a01b0316816001600160a01b031614610e53576040516364283d7b60e01b81526001600160a01b0380861660048301526024820184905282166044820152606401610a8b565b50505050565b6001600160a01b0382166000908152600f60205260408120606091829182919081866004811115610e8c57610e8c61505f565b6004811115610e9d57610e9d61505f565b8152602001908152602001600020805480602002602001604051908101604052809291908181526020018280548015610ef557602002820191906000526020600020905b815481526020019060010190808311610ee1575b505050505090506000805b8251811015610fa157600d6000848381518110610f1f57610f1f61562a565b60209081029190910181015182528101919091526040016000205460ff168015610f7c5750600e6000848381518110610f5a57610f5a61562a565b60209081029190910181015182528101919091526040016000206004015460ff165b15610f8f5781610f8b81615611565b9250505b80610f9981615611565b915050610f00565b50806001600160401b03811115610fba57610fba615206565b604051908082528060200260200182016040528015610fe3578160200160208202803683370190505b509450806001600160401b03811115610ffe57610ffe615206565b604051908082528060200260200182016040528015611027578160200160208202803683370190505b509350806001600160401b0381111561104257611042615206565b60405190808252806020026020018201604052801561106b578160200160208202803683370190505b5092506000805b835181101561117c57600084828151811061108f5761108f61562a565b6020908102919091018101516000818152600d90925260409091205490915060ff1680156110ce57506000818152600e602052604090206004015460ff165b1561116957808884815181106110e6576110e661562a565b602002602001018181525050600e60008281526020019081526020016000206003015487848151811061111b5761111b61562a565b602002602001018181525050600e6000828152602001908152602001600020600201548684815181106111505761115061562a565b60209081029190910101528261116581615611565b9350505b508061117481615611565b915050611072565b505050509250925092565b6111b26040518060800160405280606081526020016000815260200160008152602001600081525090565b600a60008360048111156111c8576111c861505f565b60048111156111d9576111d961505f565b8152602001908152602001600020604051806080016040529081600082018054611202906155c1565b80601f016020809104026020016040519081016040528092919081815260200182805461122e906155c1565b801561127b5780601f106112505761010080835404028352916020019161127b565b820191906000526020600020905b81548152906001019060200180831161125e57829003601f168201915b5050505050815260200160018201548152602001600282015481526020016003820154815250509050919050565b6112b1613ea6565b806112f35760405162461bcd60e51b8152602060048201526012602482015271139bc81d1bdad95b9cc81c1c9bdd9a59195960721b6044820152606401610a8b565b60005b818110156114065760008383838181106113125761131261562a565b905060200201359050336001600160a01b031661132e82611939565b6001600160a01b0316146113845760405162461bcd60e51b815260206004820152601a60248201527f4e6f7420746865206f776e6572206f66207468697320747265650000000000006044820152606401610a8b565b6000818152600d602052604090205460ff166113d45760405162461bcd60e51b815260206004820152600f60248201526e151c9959481b9bdd081b1a5cdd1959608a1b6044820152606401610a8b565b6000818152600b602052604090205460ff166113f1823383613ed0565b505080806113fe90615611565b9150506112f6565b50336001600160a01b03167f3fa3ddc780dd74af1f9341736df5507180f79d41b093b8550ca517732ec5951d8383604051611442929190615640565b60405180910390a2610a3e6001600855565b61146f83838360405180602001604052806000815250612bdd565b505050565b61147c613ea6565b600081116114cc5760405162461bcd60e51b815260206004820152601f60248201527f5175616e74697479206d7573742062652067726561746572207468616e2030006044820152606401610a8b565b6001600160a01b03831660009081526011602052604090205460ff166115345760405162461bcd60e51b815260206004820152601d60248201527f53656c6c657220686173206e6f20616374697665206c697374696e67730000006044820152606401610a8b565b6001600160a01b0383166000908152600f602052604081208184600481111561155f5761155f61505f565b60048111156115705761157061505f565b81526020019081526020016000208054806020026020016040519081016040528092919081815260200182805480156115c857602002820191906000526020600020905b8154815260200190600101908083116115b4575b5050505050905081815110156116345760405162461bcd60e51b815260206004820152602b60248201527f4e6f7420656e6f75676820747265657320617661696c61626c652066726f6d2060448201526a3a3434b99039b2b63632b960a91b6064820152608401610a8b565b6000826001600160401b0381111561164e5761164e615206565b604051908082528060200260200182016040528015611677578160200160208202803683370190505b50905060008060005b84518110801561168f57508582105b156117505760008582815181106116a8576116a861562a565b6020908102919091018101516000818152600d90925260409091205490915060ff1680156116e757506000818152600e602052604090206004015460ff165b1561173d57808584815181106116ff576116ff61562a565b602002602001018181525050600e6000828152602001908152602001600020600301548461172d9190615679565b93508261173981615611565b9350505b508061174881615611565b915050611680565b508481146117ac5760405162461bcd60e51b8152602060048201526024808201527f4e6f7420656e6f75676820616374697665206c697374696e677320617661696c60448201526361626c6560e01b6064820152608401610a8b565b813410156117f35760405162461bcd60e51b8152602060048201526014602482015273125b9cdd59999a58da595b9d081c185e5b595b9d60621b6044820152606401610a8b565b60005b858110156118455760008482815181106118125761181261562a565b60200260200101519050611827818a8a613ed0565b6118328933836143c4565b508061183d81615611565b9150506117f6565b506040516001600160a01b0388169083156108fc029084906000818181858888f1935050505015801561187c573d6000803e3d6000fd5b50813411156118bd57336108fc611893843461568c565b6040518115909202916000818181858888f193505050501580156118bb573d6000803e3d6000fd5b505b336001600160a01b0316876001600160a01b03167f596718f13c536c1e489b6919d4d687f3fc102f8adda16653785f14f72c726679858560405161190292919061569f565b60405180910390a35050505061146f6001600855565b6012818154811061192857600080fd5b600091825260209091200154905081565b600061097282613d06565b6060600080808061195486613d78565b6001600160a01b0316036119a05760405162461bcd60e51b8152602060048201526013602482015272151c995948191bd95cc81b9bdd08195e1a5cdd606a1b6044820152606401610a8b565b6000858152600b60205260408082208151608081019092528054829060ff1660048111156119d0576119d061505f565b60048111156119e1576119e161505f565b815260018201546020820152600282015460408201526003909101546001600160a01b03166060909101528051909150600090600a9082906004811115611a2a57611a2a61505f565b6004811115611a3b57611a3b61505f565b8152602001908152602001600020604051806080016040529081600082018054611a64906155c1565b80601f0160208091040260200160405190810160405280929190818152602001828054611a90906155c1565b8015611add5780601f10611ab257610100808354040283529160200191611add565b820191906000526020600020905b815481529060010190602001808311611ac057829003601f168201915b50505091835250506001820154602082015260028201546040820152600390910154606090910152805196509050611b1487611e90565b9450816020015193508160600151925050509193509193565b611b35613ea6565b80611b775760405162461bcd60e51b8152602060048201526012602482015271139bc81d1bdad95b9cc81c1c9bdd9a59195960721b6044820152606401610a8b565b60005b81811015611e54576000838383818110611b9657611b9661562a565b905060200201359050336001600160a01b0316611bb282611939565b6001600160a01b031614611c085760405162461bcd60e51b815260206004820152601a60248201527f4e6f7420746865206f776e6572206f66207468697320747265650000000000006044820152606401610a8b565b6000818152600d602052604090205460ff1615611c5d5760405162461bcd60e51b8152602060048201526013602482015272151c995948185b1c9958591e481b1a5cdd1959606a1b6044820152606401610a8b565b6000611c6882611e90565b6040805160a081018252848152336020808301828152428486019081526060850187815260016080870181815260008c8152600e875289812098518955945188830180546001600160a01b039092166001600160a01b0319909216919091179055925160028801559051600387015590516004958601805491151560ff19928316179055600d84528683208054909116821790556012805491820190557fbb8a6a4669ba250d26cd7a459eca9d215f8307e33aebe50379bc5a3617ec344401889055600b825284812054928152600f90915292832093945060ff169291908390811115611d5757611d5761505f565b6004811115611d6857611d6861505f565b815260208082019290925260409081016000908120805460018101825590825283822001869055338152600f909252812090826004811115611dac57611dac61505f565b6004811115611dbd57611dbd61505f565b8152602081019190915260400160002054600103611e255733600090815260106020908152604082208054600181018255908352918190209082040180548392601f166101000a60ff81021990911690836004811115611e1f57611e1f61505f565b02179055505b5050336000908152601160205260409020805460ff191660011790555080611e4c81615611565b915050611b7a565b50336001600160a01b03167ffc4f8948e68b1d67bd9db6ff71f155b426a2d051f2e60143df0bd2d8c7aec7158383604051611442929190615640565b600080611e9c83613d78565b6001600160a01b031603611ee85760405162461bcd60e51b8152602060048201526013602482015272151c995948191bd95cc81b9bdd08195e1a5cdd606a1b6044820152606401610a8b565b6000828152600b60205260408082208151608081019092528054829060ff166004811115611f1857611f1861505f565b6004811115611f2957611f2961505f565b815260018201546020820152600282015460408201526003909101546001600160a01b03166060909101528051909150600090600a9082906004811115611f7257611f7261505f565b6004811115611f8357611f8361505f565b8152602001908152602001600020604051806080016040529081600082018054611fac906155c1565b80601f0160208091040260200160405190810160405280929190818152602001828054611fd8906155c1565b80156120255780601f10611ffa57610100808354040283529160200191612025565b820191906000526020600020905b81548152906001019060200180831161200857829003601f168201915b505050505081526020016001820154815260200160028201548152602001600382015481525050905060006301e13380836020015142612065919061568c565b61206f91906156c1565b90506000826060015183604001516120879190615679565b9050600061209583836156e3565b6120a0906064615679565b905060648186604001516120b491906156e3565b6120be91906156c1565b979650505050505050565b60006001600160a01b0382166120f5576040516322718ad960e21b815260006004820152602401610a8b565b506001600160a01b031660009081526003602052604090205490565b612119613d4b565b6121236000614474565b565b60606000806012805490506001600160401b0381111561214757612147615206565b604051908082528060200260200182016040528015612170578160200160208202803683370190505b50905060005b60125481101561226e576000600e6000601284815481106121995761219961562a565b600091825260208083209091015483528201929092526040018120600101546001600160a01b03169150805b8581101561221a57826001600160a01b03168582815181106121e9576121e961562a565b60200260200101516001600160a01b031603612208576001915061221a565b8061221281615611565b9150506121c5565b508061225957818486815181106122335761223361562a565b6001600160a01b03909216602092830291909101909101528461225581615611565b9550505b5050808061226690615611565b915050612176565b50816001600160401b0381111561228757612287615206565b6040519080825280602002602001820160405280156122b0578160200160208202803683370190505b50925060005b82811015612314578181815181106122d0576122d061562a565b60200260200101518482815181106122ea576122ea61562a565b6001600160a01b03909216602092830291909101909101528061230c81615611565b9150506122b6565b50505090565b606060018054610987906155c1565b606080606080612337614c14565b600060015b6009548110156123fc57876001600160a01b031661235982613d78565b6001600160a01b0316036123ea576000818152600b602052604090205460ff168381600481111561238c5761238c61505f565b60ff166005811061239f5761239f61562a565b60200201516123e8576001848260048111156123bd576123bd61505f565b60ff16600581106123d0576123d061562a565b91151560209092020152826123e481615611565b9350505b505b806123f481615611565b91505061233c565b50806001600160401b0381111561241557612415615206565b60405190808252806020026020018201604052801561243e578160200160208202803683370190505b509550806001600160401b0381111561245957612459615206565b604051908082528060200260200182016040528015612482578160200160208202803683370190505b509450806001600160401b0381111561249d5761249d615206565b6040519080825280602002602001820160405280156124d057816020015b60608152602001906001900390816124bb5790505b509350806001600160401b038111156124eb576124eb615206565b60405190808252806020026020018201604052801561251e57816020015b60608152602001906001900390816125095790505b5092506000805b60058160ff16101561284257838160ff16600581106125465761254661562a565b6020020151156128305760008160ff1660048111156125675761256761505f565b90508089848151811061257c5761257c61562a565b602002602001019060048111156125955761259561505f565b908160048111156125a8576125a861505f565b905250600060015b60095481101561263a578b6001600160a01b03166125cd82613d78565b6001600160a01b031614801561261557508260048111156125f0576125f061505f565b6000828152600b602052604090205460ff1660048111156126135761261361505f565b145b15612628578161262481615611565b9250505b8061263281615611565b9150506125b0565b508089858151811061264e5761264e61562a565b602002602001018181525050806001600160401b0381111561267257612672615206565b60405190808252806020026020018201604052801561269b578160200160208202803683370190505b508885815181106126ae576126ae61562a565b6020026020010181905250806001600160401b038111156126d1576126d1615206565b6040519080825280602002602001820160405280156126fa578160200160208202803683370190505b5087858151811061270d5761270d61562a565b6020908102919091010152600060015b60095481101561281e578c6001600160a01b031661273a82613d78565b6001600160a01b0316148015612782575083600481111561275d5761275d61505f565b6000828152600b602052604090205460ff1660048111156127805761278061505f565b145b1561280c57808a878151811061279a5761279a61562a565b602002602001015183815181106127b3576127b361562a565b6020026020010181815250506127c881611e90565b8987815181106127da576127da61562a565b602002602001015183815181106127f3576127f361562a565b60209081029190910101528161280881615611565b9250505b8061281681615611565b91505061271d565b508461282981615611565b9550505050505b8061283a816156fa565b915050612525565b505050509193509193565b600a60205260009081526040902080548190612868906155c1565b80601f0160208091040260200160405190810160405280929190818152602001828054612894906155c1565b80156128e15780601f106128b6576101008083540402835291602001916128e1565b820191906000526020600020905b8154815290600101906020018083116128c457829003601f168201915b5050505050908060010154908060020154908060030154905084565b610a3e3383836144c6565b612910613ea6565b6000600a60008460048111156129285761292861505f565b60048111156129395761293961505f565b8152602001908152602001600020604051806080016040529081600082018054612962906155c1565b80601f016020809104026020016040519081016040528092919081815260200182805461298e906155c1565b80156129db5780601f106129b0576101008083540402835291602001916129db565b820191906000526020600020905b8154815290600101906020018083116129be57829003601f168201915b50505050508152602001600182015481526020016002820154815260200160038201548152505090506000612a0f84613b4f565b905080341015612a585760405162461bcd60e51b8152602060048201526014602482015273125b9cdd59999a58da595b9d081c185e5b595b9d60621b6044820152606401610a8b565b6009805460009182612a6983615611565b919050559050612a793382614565565b612a83818561457f565b6040518060800160405280866004811115612aa057612aa061505f565b81524260208083019190915234604080840191909152336060909301929092526000848152600b9091522081518154829060ff19166001836004811115612ae957612ae961505f565b021790555060208281015160018301556040808401516002840155606090930151600390920180546001600160a01b0319166001600160a01b0390931692909217909155336000908152600c909152908120805491612b4783615611565b9190505550336001600160a01b0316817fbdd470aa38c4dc34533cb66c382a1754cddb22ebce90f0bdd993afc59b6a2ff68734604051612b88929190615719565b60405180910390a381341115612bd057336108fc612ba6843461568c565b6040518115909202916000818181858888f19350505050158015612bce573d6000803e3d6000fd5b505b505050610a3e6001600855565b612be8848484610dce565b610e53848484846145cf565b60606000612c00612125565b90506000805b8251811015612c705760106000848381518110612c2557612c2561562a565b60200260200101516001600160a01b03166001600160a01b031681526020019081526020016000208054905082612c5c9190615679565b915080612c6881615611565b915050612c06565b50806001600160401b03811115612c8957612c89615206565b604051908082528060200260200182016040528015612ced57816020015b612cda6040805160a081019091526000808252602082019081526020016000815260200160008152602001606081525090565b815260200190600190039081612ca75790505b5092506000805b835181101561314e576000848281518110612d1157612d1161562a565b60200260200101519050600060106000836001600160a01b03166001600160a01b03168152602001908152602001600020805480602002602001604051908101604052809291908181526020018280548015612dbc57602002820191906000526020600020906000905b82829054906101000a900460ff166004811115612d9a57612d9a61505f565b815260206001928301818104948501949093039092029101808411612d7b5790505b5050505050905060005b8151811015613138576000828281518110612de357612de361562a565b602002602001015190506000600f6000866001600160a01b03166001600160a01b031681526020019081526020016000206000836004811115612e2857612e2861505f565b6004811115612e3957612e3961505f565b8152602001908152602001600020805480602002602001604051908101604052809291908181526020018280548015612e9157602002820191906000526020600020905b815481526020019060010190808311612e7d575b5050505050905060008151111561312357600080600083516001600160401b03811115612ec057612ec0615206565b604051908082528060200260200182016040528015612ee9578160200160208202803683370190505b50905060005b845181101561300557600d6000868381518110612f0e57612f0e61562a565b60209081029190910181015182528101919091526040016000205460ff168015612f6b5750600e6000868381518110612f4957612f4961562a565b60209081029190910181015182528101919091526040016000206004015460ff165b15612ff357848181518110612f8257612f8261562a565b6020026020010151828481518110612f9c57612f9c61562a565b602002602001018181525050600e6000868381518110612fbe57612fbe61562a565b602002602001015181526020019081526020016000206003015484612fe39190615679565b935082612fef81615611565b9350505b80612ffd81615611565b915050612eef565b50811561311f576000826001600160401b0381111561302657613026615206565b60405190808252806020026020018201604052801561304f578160200160208202803683370190505b50905060005b838110156130a65782818151811061306f5761306f61562a565b60200260200101518282815181106130895761308961562a565b60209081029190910101528061309e81615611565b915050613055565b506040518060a001604052808a6001600160a01b031681526020018760048111156130d3576130d361505f565b8152602081018590526040016130e985876156c1565b8152602001828152508e8c815181106131045761310461562a565b60200260200101819052508a8061311a90615611565b9b5050505b5050505b5050808061313090615611565b915050612dc6565b505050808061314690615611565b915050612cf4565b506000816001600160401b0381111561316957613169615206565b6040519080825280602002602001820160405280156131cd57816020015b6131ba6040805160a081019091526000808252602082019081526020016000815260200160008152602001606081525090565b8152602001906001900390816131875790505b50905060005b82811015613225578581815181106131ed576131ed61562a565b60200260200101518282815181106132075761320761562a565b6020026020010181905250808061321d90615611565b9150506131d3565b50949350505050565b612123613d4b565b606061324182613d06565b506000828152600660205260408120805461325b906155c1565b80601f0160208091040260200160405190810160405280929190818152602001828054613287906155c1565b80156132d45780601f106132a9576101008083540402835291602001916132d4565b820191906000526020600020905b8154815290600101906020018083116132b757829003601f168201915b5050505050905060006132f260408051602081019091526000815290565b90508051600003613304575092915050565b81511561333657808260405160200161331e929190615734565b60405160208183030381529060405292505050919050565b61333f846146f8565b949350505050565b61334f613d4b565b604051806080016040528085815260200184815260200183815260200182815250600a60008760048111156133865761338661505f565b60048111156133975761339761505f565b81526020810191909152604001600020815181906133b590826157b1565b5060208201516001820155604082015160028201556060909101516003909101555050505050565b600f602052826000526040600020602052816000526040600020818154811061340557600080fd5b9060005260206000200160009250925050505481565b613423613d4b565b6007546040516001600160a01b03909116904780156108fc02916000818181858888f1935050505015801561345c573d6000803e3d6000fd5b50565b606080808080806005604051908082528060200260200182016040528015613491578160200160208202803683370190505b5060408051600580825260c08201909252919750816020015b60608152602001906001900390816134aa57505060408051600580825260c082019092529196506020820160a080368337505060408051600580825260c0820190925292965090506020820160a080368337505060408051600580825260c0820190925292955090506020820160a080368337505060408051600580825260c0820190925292945090506020820160a08036833701905050905060005b60058110156137595760008160048111156135645761356461505f565b90506000600a600083600481111561357e5761357e61505f565b600481111561358f5761358f61505f565b81526020019081526020016000206040518060800160405290816000820180546135b8906155c1565b80601f01602080910402602001604051908101604052809291908181526020018280546135e4906155c1565b80156136315780601f1061360657610100808354040283529160200191613631565b820191906000526020600020905b81548152906001019060200180831161361457829003601f168201915b505050505081526020016001820154815260200160028201548152602001600382015481525050905081600481111561366c5761366c61505f565b89848151811061367e5761367e61562a565b602002602001019060ff16908160ff168152505080600001518884815181106136a9576136a961562a565b602002602001018190525080602001518784815181106136cb576136cb61562a565b6020026020010181815250506136e082613b4f565b8684815181106136f2576136f261562a565b60200260200101818152505080604001518584815181106137155761371561562a565b60200260200101818152505080606001518484815181106137385761373861562a565b6020026020010181815250505050808061375190615611565b915050613547565b50909192939495565b6001600160a01b03918216600090815260056020908152604080832093909416825291909152205460ff1690565b601060205281600052604060002081815481106137ac57600080fd5b9060005260206000209060209182820401919006915091509054906101000a900460ff1681565b6001600160a01b038116600090815260106020908152604080832080548251818502810185019093528083526060949383018282801561386257602002820191906000526020600020906000905b82829054906101000a900460ff1660048111156138405761384061505f565b8152602060019283018181049485019490930390920291018084116138215790505b5050505050905080516001600160401b0381111561388257613882615206565b6040519080825280602002602001820160405280156138d857816020015b6138c56040805160608101909152806000815260200160008152602001600081525090565b8152602001906001900390816138a05790505b50915060005b8151811015613b0d5760008282815181106138fb576138fb61562a565b602002602001015190506000600f6000876001600160a01b03166001600160a01b0316815260200190815260200160002060008360048111156139405761394061505f565b60048111156139515761395161505f565b81526020019081526020016000208054806020026020016040519081016040528092919081815260200182805480156139a957602002820191906000526020600020905b815481526020019060010190808311613995575b5050505050905060008060005b8351811015613a9457600d60008583815181106139d5576139d561562a565b60209081029190910181015182528101919091526040016000205460ff168015613a325750600e6000858381518110613a1057613a1061562a565b60209081029190910181015182528101919091526040016000206004015460ff165b15613a8257600e6000858381518110613a4d57613a4d61562a565b602002602001015181526020019081526020016000206003015483613a729190615679565b925081613a7e81615611565b9250505b80613a8c81615611565b9150506139b6565b506040518060600160405280856004811115613ab257613ab261505f565b815260200182815260200160008311613acc576000613ad6565b613ad683856156c1565b815250878681518110613aeb57613aeb61562a565b6020026020010181905250505050508080613b0590615611565b9150506138de565b5050919050565b613b1c613d4b565b6001600160a01b038116613b4657604051631e4fbdf760e01b815260006004820152602401610a8b565b61345c81614474565b600080600a6000846004811115613b6857613b6861505f565b6004811115613b7957613b7961505f565b8152602001908152602001600020604051806080016040529081600082018054613ba2906155c1565b80601f0160208091040260200160405190810160405280929190818152602001828054613bce906155c1565b8015613c1b5780601f10613bf057610100808354040283529160200191613c1b565b820191906000526020600020905b815481529060010190602001808311613bfe57829003601f168201915b505050505081526020016001820154815260200160028201548152602001600382015481525050905060006001600954613c55919061568c565b9050600082606001518360400151613c6d9190615679565b90506000620186a082848660200151613c8691906156e3565b613c9091906156e3565b613c9a91906156c1565b9050808460200151613cac9190615679565b9695505050505050565b60006001600160e01b031982166380ac58cd60e01b1480613ce757506001600160e01b03198216635b5e139f60e01b145b8061097257506301ffc9a760e01b6001600160e01b0319831614610972565b600080613d1283613d78565b90506001600160a01b03811661097257604051637e27328960e01b815260048101849052602401610a8b565b61146f838383600161476d565b6007546001600160a01b031633146121235760405163118cdaa760e01b8152336004820152602401610a8b565b6000908152600260205260409020546001600160a01b031690565b600080613d9f84613d78565b90506001600160a01b03811615801590613dc157506001600160a01b03851615155b8015613ddf5750846001600160a01b0316816001600160a01b031614155b15613e92576001600160a01b0381166000908152600c60205260408120805491613e0883615870565b90915550506001600160a01b0385166000908152600c60205260408120805491613e3183615611565b90915550506000848152600b6020908152604080832060030180546001600160a01b0319166001600160a01b038a16179055600d90915290205460ff1615613e92576000848152600b602052604090205460ff16613e90858383613ed0565b505b613e9d858585614873565b95945050505050565b600260085403613ec957604051633ee5aeb560e01b815260040160405180910390fd5b6002600855565b6000838152600d60209081526040808320805460ff19908116909155600e9092528220600401805490911690555b601254811015613fb4578360128281548110613f1c57613f1c61562a565b906000526020600020015403613fa25760128054613f3c9060019061568c565b81548110613f4c57613f4c61562a565b906000526020600020015460128281548110613f6a57613f6a61562a565b6000918252602090912001556012805480613f8757613f87615887565b60019003818190600052602060002001600090559055613fb4565b80613fac81615611565b915050613efe565b506001600160a01b0382166000908152600f6020526040812081836004811115613fe057613fe061505f565b6004811115613ff157613ff161505f565b8152602001908152602001600020905060005b81548110156140b857848282815481106140205761402061562a565b9060005260206000200154036140a657815482906140409060019061568c565b815481106140505761405061562a565b906000526020600020015482828154811061406d5761406d61562a565b90600052602060002001819055508180548061408b5761408b615887565b600190038181906000526020600020016000905590556140b8565b806140b081615611565b915050614004565b506001600160a01b0383166000908152600f60205260408120908360048111156140e4576140e461505f565b60048111156140f5576140f561505f565b815260200190815260200160002080549050600003614269576001600160a01b0383166000908152601060205260408120905b8154811015614266578360048111156141435761414361505f565b8282815481106141555761415561562a565b90600052602060002090602091828204019190069054906101000a900460ff1660048111156141865761418661505f565b03614254578154829061419b9060019061568c565b815481106141ab576141ab61562a565b90600052602060002090602091828204019190069054906101000a900460ff168282815481106141dd576141dd61562a565b90600052602060002090602091828204019190066101000a81548160ff021916908360048111156142105761421061505f565b02179055508180548061422557614225615887565b60019003818190600052602060002090602091828204019190066101000a81549060ff02191690559055614266565b8061425e81615611565b915050614128565b50505b6001600160a01b0383166000908152601060209081526040808320805482518185028101850190935280835284938301828280156142f657602002820191906000526020600020906000905b82829054906101000a900460ff1660048111156142d4576142d461505f565b8152602060019283018181049485019490930390920291018084116142b55790505b5050505050905060005b8151811015614393576001600160a01b0386166000908152600f60205260408120835182908590859081106143375761433761562a565b602002602001015160048111156143505761435061505f565b60048111156143615761436161505f565b815260208101919091526040016000205411156143815760019250614393565b8061438b81615611565b915050614300565b50506001600160a01b03939093166000908152601160205260409020805460ff191693151593909317909255505050565b6001600160a01b0382166143ee57604051633250574960e11b815260006004820152602401610a8b565b60006143fc83836000613d93565b90506001600160a01b03811661442857604051637e27328960e01b815260048101839052602401610a8b565b836001600160a01b0316816001600160a01b031614610e53576040516364283d7b60e01b81526001600160a01b0380861660048301526024820184905282166044820152606401610a8b565b600780546001600160a01b038381166001600160a01b0319831681179093556040519116919082907f8be0079c531659141344cd1fd0a4f28419497f9722a3daafe3b4186f6b6457e090600090a35050565b6001600160a01b0382166144f857604051630b61174360e31b81526001600160a01b0383166004820152602401610a8b565b6001600160a01b03838116600081815260056020908152604080832094871680845294825291829020805460ff191686151590811790915591519182527f17307eab39ab6107e8899845ad3d59bd9653f200f220920489ca2b5937696c31910160405180910390a3505050565b610a3e828260405180602001604052806000815250614967565b600082815260066020526040902061459782826157b1565b506040518281527ff8e1a15aba9398e019f0b49df1a4fde98ee17ae345cb5f6b5e2c27f5033e8ce79060200160405180910390a15050565b6001600160a01b0383163b15610e5357604051630a85bd0160e11b81526001600160a01b0384169063150b7a029061461190339088908790879060040161589d565b6020604051808303816000875af192505050801561464c575060408051601f3d908101601f19168201909252614649918101906158d0565b60015b6146b5573d80801561467a576040519150601f19603f3d011682016040523d82523d6000602084013e61467f565b606091505b5080516000036146ad57604051633250574960e11b81526001600160a01b0385166004820152602401610a8b565b805181602001fd5b6001600160e01b03198116630a85bd0160e11b146146f157604051633250574960e11b81526001600160a01b0385166004820152602401610a8b565b5050505050565b606061470382613d06565b50600061471b60408051602081019091526000815290565b9050600081511161473b5760405180602001604052806000815250614766565b806147458461497e565b604051602001614756929190615734565b6040516020818303038152906040525b9392505050565b808061478157506001600160a01b03821615155b1561484357600061479184613d06565b90506001600160a01b038316158015906147bd5750826001600160a01b0316816001600160a01b031614155b80156147d057506147ce8184613762565b155b156147f95760405163a9fbf51f60e01b81526001600160a01b0384166004820152602401610a8b565b81156148415783856001600160a01b0316826001600160a01b03167f8c5be1e5ebec7d5bd14f71427d1e84f3dd0314c0f7b2291e5b200ac8c7c3b92560405160405180910390a45b505b5050600090815260046020526040902080546001600160a01b0319166001600160a01b0392909216919091179055565b60008061487f84613d78565b90506001600160a01b0383161561489b5761489b818486614a10565b6001600160a01b038116156148d9576148b860008560008061476d565b6001600160a01b038116600090815260036020526040902080546000190190555b6001600160a01b03851615614908576001600160a01b0385166000908152600360205260409020805460010190555b60008481526002602052604080822080546001600160a01b0319166001600160a01b0389811691821790925591518793918516917fddf252ad1be2c89b69c2b068fc378daa952ba7f163c4a11628f55a4df523b3ef91a4949350505050565b6149718383614a74565b61146f60008484846145cf565b6060600061498b83614ad9565b60010190506000816001600160401b038111156149aa576149aa615206565b6040519080825280601f01601f1916602001820160405280156149d4576020820181803683370190505b5090508181016020015b600019016f181899199a1a9b1b9c1cb0b131b232b360811b600a86061a8153600a85049450846149de57509392505050565b614a1b838383614bb1565b61146f576001600160a01b038316614a4957604051637e27328960e01b815260048101829052602401610a8b565b60405163177e802f60e01b81526001600160a01b038316600482015260248101829052604401610a8b565b6001600160a01b038216614a9e57604051633250574960e11b815260006004820152602401610a8b565b6000614aac83836000613d93565b90506001600160a01b0381161561146f576040516339e3563760e11b815260006004820152602401610a8b565b60008072184f03e93ff9f4daa797ed6e38ed64bf6a1f0160401b8310614b185772184f03e93ff9f4daa797ed6e38ed64bf6a1f0160401b830492506040015b6d04ee2d6d415b85acef81000000008310614b44576d04ee2d6d415b85acef8100000000830492506020015b662386f26fc100008310614b6257662386f26fc10000830492506010015b6305f5e1008310614b7a576305f5e100830492506008015b6127108310614b8e57612710830492506004015b60648310614ba0576064830492506002015b600a83106109725760010192915050565b60006001600160a01b0383161580159061333f5750826001600160a01b0316846001600160a01b03161480614beb5750614beb8484613762565b8061333f5750506000908152600460205260409020546001600160a01b03908116911614919050565b6040518060a001604052806005906020820280368337509192915050565b6001600160e01b03198116811461345c57600080fd5b600060208284031215614c5a57600080fd5b813561476681614c32565b60005b83811015614c80578181015183820152602001614c68565b50506000910152565b60008151808452614ca1816020860160208601614c65565b601f01601f19169290920160200192915050565b6020815260006147666020830184614c89565b600060208284031215614cda57600080fd5b5035919050565b80356001600160a01b0381168114614cf857600080fd5b919050565b60008060408385031215614d1057600080fd5b614d1983614ce1565b946020939093013593505050565b600060208284031215614d3957600080fd5b61476682614ce1565b600081518084526020808501945080840160005b83811015614d7257815187529582019590820190600101614d56565b509495945050505050565b600082825180855260208086019550808260051b84010181860160005b84811015614dc857601f19868403018952614db6838351614c89565b98840198925090830190600101614d9a565b5090979650505050505050565b608081526000614de86080830187614d42565b8281036020840152614dfa8187614d7d565b90508281036040840152614e0e8186614d42565b905082810360608401526120be8185614d42565b600080600060608486031215614e3757600080fd5b614e4084614ce1565b9250614e4e60208501614ce1565b9150604084013590509250925092565b803560058110614cf857600080fd5b60008060408385031215614e8057600080fd5b614e8983614ce1565b9150614e9760208401614e5e565b90509250929050565b606081526000614eb36060830186614d42565b8281036020840152614ec58186614d42565b90508281036040840152613cac8185614d42565b600060208284031215614eeb57600080fd5b61476682614e5e565b602081526000825160806020840152614f1060a0840182614c89565b90506020840151604084015260408401516060840152606084015160808401528091505092915050565b60008060208385031215614f4d57600080fd5b82356001600160401b0380821115614f6457600080fd5b818501915085601f830112614f7857600080fd5b813581811115614f8757600080fd5b8660208260051b8501011115614f9c57600080fd5b60209290920196919550909350505050565b600080600060608486031215614fc357600080fd5b614fcc84614ce1565b9250614e4e60208501614e5e565b608081526000614fed6080830187614c89565b60208301959095525060408101929092526001600160a01b0316606090910152919050565b6020808252825182820181905260009190848201906040850190845b818110156150535783516001600160a01b03168352928401929184019160010161502e565b50909695505050505050565b634e487b7160e01b600052602160045260246000fd5b6005811061509357634e487b7160e01b600052602160045260246000fd5b9052565b608081016150a58287615075565b602082019490945260408101929092526001600160a01b0316606090910152919050565b600081518084526020808501808196508360051b8101915082860160005b858110156151115782840389526150ff848351614d42565b988501989350908401906001016150e7565b5091979650505050505050565b6080808252855190820181905260009060209060a0840190828901845b8281101561515e5761514e848351615075565b928401929084019060010161513b565b505050838103828501526151728188614d42565b915050828103604084015261518781866150c9565b905082810360608401526120be81856150c9565b6080815260006151ae6080830187614c89565b6020830195909552506040810192909252606090910152919050565b600080604083850312156151dd57600080fd5b6151e683614ce1565b9150602083013580151581146151fb57600080fd5b809150509250929050565b634e487b7160e01b600052604160045260246000fd5b60006001600160401b038084111561523657615236615206565b604051601f8501601f19908116603f0116810190828211818310171561525e5761525e615206565b8160405280935085815286868601111561527757600080fd5b858560208301376000602087830101525050509392505050565b600082601f8301126152a257600080fd5b6147668383356020850161521c565b600080604083850312156152c457600080fd5b6152cd83614e5e565b915060208301356001600160401b038111156152e857600080fd5b6152f485828601615291565b9150509250929050565b6000806000806080858703121561531457600080fd5b61531d85614ce1565b935061532b60208601614ce1565b92506040850135915060608501356001600160401b0381111561534d57600080fd5b8501601f8101871361535e57600080fd5b61536d8782356020840161521c565b91505092959194509250565b60006020808301818452808551808352604092508286019150828160051b87010184880160005b8381101561541257888303603f19018552815180516001600160a01b031684528781015160a0906153d38a870182615075565b508188015185890152606080830151908601526080918201519185018190526153fe81860183614d42565b9689019694505050908601906001016153a0565b509098975050505050505050565b600080600080600060a0868803121561543857600080fd5b61544186614e5e565b945060208601356001600160401b0381111561545c57600080fd5b61546888828901615291565b959895975050505060408401359360608101359360809091013592509050565b60c0808252875190820181905260009060209060e0840190828b01845b828110156154c457815160ff16845292840192908401906001016154a5565b505050838103828501526154d8818a614d7d565b91505082810360408401526154ed8188614d42565b905082810360608401526155018187614d42565b905082810360808401526155158186614d42565b905082810360a08401526155298185614d42565b9998505050505050505050565b6000806040838503121561554957600080fd5b61555283614ce1565b9150614e9760208401614ce1565b602081016109728284615075565b602080825282518282018190526000919060409081850190868401855b828110156151115781516155a0858251615075565b8087015185880152850151858501526060909301929085019060010161558b565b600181811c908216806155d557607f821691505b6020821081036155f557634e487b7160e01b600052602260045260246000fd5b50919050565b634e487b7160e01b600052601160045260246000fd5b600060018201615623576156236155fb565b5060010190565b634e487b7160e01b600052603260045260246000fd5b6020808252810182905260006001600160fb1b0383111561566057600080fd5b8260051b80856040850137919091016040019392505050565b80820180821115610972576109726155fb565b81810381811115610972576109726155fb565b6040815260006156b26040830185614d42565b90508260208301529392505050565b6000826156de57634e487b7160e01b600052601260045260246000fd5b500490565b8082028115828204841417610972576109726155fb565b600060ff821660ff8103615710576157106155fb565b60010192915050565b604081016157278285615075565b8260208301529392505050565b60008351615746818460208801614c65565b83519083019061575a818360208801614c65565b01949350505050565b601f82111561146f57600081815260208120601f850160051c8101602086101561578a5750805b601f850160051c820191505b818110156157a957828155600101615796565b505050505050565b81516001600160401b038111156157ca576157ca615206565b6157de816157d884546155c1565b84615763565b602080601f83116001811461581357600084156157fb5750858301515b600019600386901b1c1916600185901b1785556157a9565b600085815260208120601f198616915b8281101561584257888601518255948401946001909101908401615823565b50858210156158605787850151600019600388901b60f8161c191681555b5050505050600190811b01905550565b60008161587f5761587f6155fb565b506000190190565b634e487b7160e01b600052603160045260246000fd5b6001600160a01b0385811682528416602082015260408101839052608060608201819052600090613cac90830184614c89565b6000602082840312156158e257600080fd5b815161476681614c3256fea2646970667358221220d7e0398b850b17aec599e905516d02486f27fed944fa21cf332ee174a575138d64736f6c63430008140033",
  "devdoc": {
    "errors": {
      "ERC721IncorrectOwner(address,uint256,address)": [
        {
          "details": "Indicates an error related to the ownership over a particular token. Used in transfers.",
          "params": {
            "owner": "Address of the current owner of a token.",
            "sender": "Address whose tokens are being transferred.",
            "tokenId": "Identifier number of a token."
          }
        }
      ],
      "ERC721InsufficientApproval(address,uint256)": [
        {
          "details": "Indicates a failure with the `operator`s approval. Used in transfers.",
          "params": {
            "operator": "Address that may be allowed to operate on tokens without being their owner.",
            "tokenId": "Identifier number of a token."
          }
        }
      ],
      "ERC721InvalidApprover(address)": [
        {
          "details": "Indicates a failure with the `approver` of a token to be approved. Used in approvals.",
          "params": {
            "approver": "Address initiating an approval operation."
          }
        }
      ],
      "ERC721InvalidOperator(address)": [
        {
          "details": "Indicates a failure with the `operator` to be approved. Used in approvals.",
          "params": {
            "operator": "Address that may be allowed to operate on tokens without being their owner."
          }
        }
      ],
      "ERC721InvalidOwner(address)": [
        {
          "details": "Indicates that an address can't be an owner. For example, `address(0)` is a forbidden owner in EIP-20. Used in balance queries.",
          "params": {
            "owner": "Address of the current owner of a token."
          }
        }
      ],
      "ERC721InvalidReceiver(address)": [
        {
          "details": "Indicates a failure with the token `receiver`. Used in transfers.",
          "params": {
            "receiver": "Address to which tokens are being transferred."
          }
        }
      ],
      "ERC721InvalidSender(address)": [
        {
          "details": "Indicates a failure with the token `sender`. Used in transfers.",
          "params": {
            "sender": "Address whose tokens are being transferred."
          }
        }
      ],
      "ERC721NonexistentToken(uint256)": [
        {
          "details": "Indicates a `tokenId` whose `owner` is the zero address.",
          "params": {
            "tokenId": "Identifier number of a token."
          }
        }
      ],
      "OwnableInvalidOwner(address)": [
        {
          "details": "The owner is not a valid owner account. (eg. `address(0)`)"
        }
      ],
      "OwnableUnauthorizedAccount(address)": [
        {
          "details": "The caller account is not authorized to perform an operation."
        }
      ],
      "ReentrancyGuardReentrantCall()": [
        {
          "details": "Unauthorized reentrant call."
        }
      ]
    },
    "events": {
      "Approval(address,address,uint256)": {
        "details": "Emitted when `owner` enables `approved` to manage the `tokenId` token."
      },
      "ApprovalForAll(address,address,bool)": {
        "details": "Emitted when `owner` enables or disables (`approved`) `operator` to manage all of its assets."
      },
      "BatchMetadataUpdate(uint256,uint256)": {
        "details": "This event emits when the metadata of a range of tokens is changed. So that the third-party platforms such as NFT market could timely update the images and related attributes of the NFTs."
      },
      "MetadataUpdate(uint256)": {
        "details": "This event emits when the metadata of a token is changed. So that the third-party platforms such as NFT market could timely update the images and related attributes of the NFT."
      },
      "Transfer(address,address,uint256)": {
        "details": "Emitted when `tokenId` token is transferred from `from` to `to`."
      }
    },
    "kind": "dev",
    "methods": {
      "approve(address,uint256)": {
        "details": "See {IERC721-approve}."
      },
      "balanceOf(address)": {
        "details": "See {IERC721-balanceOf}."
      },
      "getApproved(uint256)": {
        "details": "See {IERC721-getApproved}."
      },
      "isApprovedForAll(address,address)": {
        "details": "See {IERC721-isApprovedForAll}."
      },
      "name()": {
        "details": "See {IERC721Metadata-name}."
      },
      "owner()": {
        "details": "Returns the address of the current owner."
      },
      "ownerOf(uint256)": {
        "details": "See {IERC721-ownerOf}."
      },
      "renounceOwnership()": {
        "details": "Leaves the contract without owner. It will not be possible to call `onlyOwner` functions. Can only be called by the current owner. NOTE: Renouncing ownership will leave the contract without an owner, thereby disabling any functionality that is only available to the owner."
      },
      "safeTransferFrom(address,address,uint256)": {
        "details": "See {IERC721-safeTransferFrom}."
      },
      "safeTransferFrom(address,address,uint256,bytes)": {
        "details": "See {IERC721-safeTransferFrom}."
      },
      "setApprovalForAll(address,bool)": {
        "details": "See {IERC721-setApprovalForAll}."
      },
      "supportsInterface(bytes4)": {
        "details": "See {IERC165-supportsInterface}"
      },
      "symbol()": {
        "details": "See {IERC721Metadata-symbol}."
      },
      "tokenURI(uint256)": {
        "details": "See {IERC721Metadata-tokenURI}."
      },
      "transferFrom(address,address,uint256)": {
        "details": "See {IERC721-transferFrom}."
      },
      "transferOwnership(address)": {
        "details": "Transfers ownership of the contract to a new account (`newOwner`). Can only be called by the current owner."
      }
    },
    "version": 1
  },
  "userdoc": {
    "kind": "user",
    "methods": {},
    "version": 1
  },
  "storageLayout": {
    "storage": [
      {
        "astId": 349,
        "contract": "contracts/TreeNFT.sol:FruitTreeNFT",
        "label": "_name",
        "offset": 0,
        "slot": "0",
        "type": "t_string_storage"
      },
      {
        "astId": 351,
        "contract": "contracts/TreeNFT.sol:FruitTreeNFT",
        "label": "_symbol",
        "offset": 0,
        "slot": "1",
        "type": "t_string_storage"
      },
      {
        "astId": 355,
        "contract": "contracts/TreeNFT.sol:FruitTreeNFT",
        "label": "_owners",
        "offset": 0,
        "slot": "2",
        "type": "t_mapping(t_uint256,t_address)"
      },
      {
        "astId": 359,
        "contract": "contracts/TreeNFT.sol:FruitTreeNFT",
        "label": "_balances",
        "offset": 0,
        "slot": "3",
        "type": "t_mapping(t_address,t_uint256)"
      },
      {
        "astId": 363,
        "contract": "contracts/TreeNFT.sol:FruitTreeNFT",
        "label": "_tokenApprovals",
        "offset": 0,
        "slot": "4",
        "type": "t_mapping(t_uint256,t_address)"
      },
      {
        "astId": 369,
        "contract": "contracts/TreeNFT.sol:FruitTreeNFT",
        "label": "_operatorApprovals",
        "offset": 0,
        "slot": "5",
        "type": "t_mapping(t_address,t_mapping(t_address,t_bool))"
      },
      {
        "astId": 1488,
        "contract": "contracts/TreeNFT.sol:FruitTreeNFT",
        "label": "_tokenURIs",
        "offset": 0,
        "slot": "6",
        "type": "t_mapping(t_uint256,t_string_storage)"
      },
      {
        "astId": 8,
        "contract": "contracts/TreeNFT.sol:FruitTreeNFT",
        "label": "_owner",
        "offset": 0,
        "slot": "7",
        "type": "t_address"
      },
      {
        "astId": 1655,
        "contract": "contracts/TreeNFT.sol:FruitTreeNFT",
        "label": "_status",
        "offset": 0,
        "slot": "8",
        "type": "t_uint256"
      },
      {
        "astId": 3177,
        "contract": "contracts/TreeNFT.sol:FruitTreeNFT",
        "label": "nextTokenId",
        "offset": 0,
        "slot": "9",
        "type": "t_uint256"
      },
      {
        "astId": 3240,
        "contract": "contracts/TreeNFT.sol:FruitTreeNFT",
        "label": "treeTypeInfo",
        "offset": 0,
        "slot": "10",
        "type": "t_mapping(t_enum(TreeType)3183,t_struct(TreeInfo)3192_storage)"
      },
      {
        "astId": 3245,
        "contract": "contracts/TreeNFT.sol:FruitTreeNFT",
        "label": "trees",
        "offset": 0,
        "slot": "11",
        "type": "t_mapping(t_uint256,t_struct(Tree)3202_storage)"
      },
      {
        "astId": 3249,
        "contract": "contracts/TreeNFT.sol:FruitTreeNFT",
        "label": "ownerTreeCount",
        "offset": 0,
        "slot": "12",
        "type": "t_mapping(t_address,t_uint256)"
      },
      {
        "astId": 3253,
        "contract": "contracts/TreeNFT.sol:FruitTreeNFT",
        "label": "isListed",
        "offset": 0,
        "slot": "13",
        "type": "t_mapping(t_uint256,t_bool)"
      },
      {
        "astId": 3258,
        "contract": "contracts/TreeNFT.sol:FruitTreeNFT",
        "label": "listings",
        "offset": 0,
        "slot": "14",
        "type": "t_mapping(t_uint256,t_struct(Listing)3213_storage)"
      },
      {
        "astId": 3266,
        "contract": "contracts/TreeNFT.sol:FruitTreeNFT",
        "label": "sellerTreesByType",
        "offset": 0,
        "slot": "15",
        "type": "t_mapping(t_address,t_mapping(t_enum(TreeType)3183,t_array(t_uint256)dyn_storage))"
      },
      {
        "astId": 3272,
        "contract": "contracts/TreeNFT.sol:FruitTreeNFT",
        "label": "sellerActiveTreeTypes",
        "offset": 0,
        "slot": "16",
        "type": "t_mapping(t_address,t_array(t_enum(TreeType)3183)dyn_storage)"
      },
      {
        "astId": 3276,
        "contract": "contracts/TreeNFT.sol:FruitTreeNFT",
        "label": "hasActiveListings",
        "offset": 0,
        "slot": "17",
        "type": "t_mapping(t_address,t_bool)"
      },
      {
        "astId": 3279,
        "contract": "contracts/TreeNFT.sol:FruitTreeNFT",
        "label": "activeListings",
        "offset": 0,
        "slot": "18",
        "type": "t_array(t_uint256)dyn_storage"
      }
    ],
    "types": {
      "t_address": {
        "encoding": "inplace",
        "label": "address",
        "numberOfBytes": "20"
      },
      "t_array(t_enum(TreeType)3183)dyn_storage": {
        "base": "t_enum(TreeType)3183",
        "encoding": "dynamic_array",
        "label": "enum FruitTreeNFT.TreeType[]",
        "numberOfBytes": "32"
      },
      "t_array(t_uint256)dyn_storage": {
        "base": "t_uint256",
        "encoding": "dynamic_array",
        "label": "uint256[]",
        "numberOfBytes": "32"
      },
      "t_bool": {
        "encoding": "inplace",
        "label": "bool",
        "numberOfBytes": "1"
      },
      "t_enum(TreeType)3183": {
        "encoding": "inplace",
        "label": "enum FruitTreeNFT.TreeType",
        "numberOfBytes": "1"
      },
      "t_mapping(t_address,t_array(t_enum(TreeType)3183)dyn_storage)": {
        "encoding": "mapping",
        "key": "t_address",
        "label": "mapping(address => enum FruitTreeNFT.TreeType[])",
        "numberOfBytes": "32",
        "value": "t_array(t_enum(TreeType)3183)dyn_storage"
      },
      "t_mapping(t_address,t_bool)": {
        "encoding": "mapping",
        "key": "t_address",
        "label": "mapping(address => bool)",
        "numberOfBytes": "32",
        "value": "t_bool"
      },
      "t_mapping(t_address,t_mapping(t_address,t_bool))": {
        "encoding": "mapping",
        "key": "t_address",
        "label": "mapping(address => mapping(address => bool))",
        "numberOfBytes": "32",
        "value": "t_mapping(t_address,t_bool)"
      },
      "t_mapping(t_address,t_mapping(t_enum(TreeType)3183,t_array(t_uint256)dyn_storage))": {
        "encoding": "mapping",
        "key": "t_address",
        "label": "mapping(address => mapping(enum FruitTreeNFT.TreeType => uint256[]))",
        "numberOfBytes": "32",
        "value": "t_mapping(t_enum(TreeType)3183,t_array(t_uint256)dyn_storage)"
      },
      "t_mapping(t_address,t_uint256)": {
        "encoding": "mapping",
        "key": "t_address",
        "label": "mapping(address => uint256)",
        "numberOfBytes": "32",
        "value": "t_uint256"
      },
      "t_mapping(t_enum(TreeType)3183,t_array(t_uint256)dyn_storage)": {
        "encoding": "mapping",
        "key": "t_enum(TreeType)3183",
        "label": "mapping(enum FruitTreeNFT.TreeType => uint256[])",
        "numberOfBytes": "32",
        "value": "t_array(t_uint256)dyn_storage"
      },
      "t_mapping(t_enum(TreeType)3183,t_struct(TreeInfo)3192_storage)": {
        "encoding": "mapping",
        "key": "t_enum(TreeType)3183",
        "label": "mapping(enum FruitTreeNFT.TreeType => struct FruitTreeNFT.TreeInfo)",
        "numberOfBytes": "32",
        "value": "t_struct(TreeInfo)3192_storage"
      },
      "t_mapping(t_uint256,t_address)": {
        "encoding": "mapping",
        "key": "t_uint256",
        "label": "mapping(uint256 => address)",
        "numberOfBytes": "32",
        "value": "t_address"
      },
      "t_mapping(t_uint256,t_bool)": {
        "encoding": "mapping",
        "key": "t_uint256",
        "label": "mapping(uint256 => bool)",
        "numberOfBytes": "32",
        "value": "t_bool"
      },
      "t_mapping(t_uint256,t_string_storage)": {
        "encoding": "mapping",
        "key": "t_uint256",
        "label": "mapping(uint256 => string)",
        "numberOfBytes": "32",
        "value": "t_string_storage"
      },
      "t_mapping(t_uint256,t_struct(Listing)3213_storage)": {
        "encoding": "mapping",
        "key": "t_uint256",
        "label": "mapping(uint256 => struct FruitTreeNFT.Listing)",
        "numberOfBytes": "32",
        "value": "t_struct(Listing)3213_storage"
      },
      "t_mapping(t_uint256,t_struct(Tree)3202_storage)": {
        "encoding": "mapping",
        "key": "t_uint256",
        "label": "mapping(uint256 => struct FruitTreeNFT.Tree)",
        "numberOfBytes": "32",
        "value": "t_struct(Tree)3202_storage"
      },
      "t_string_storage": {
        "encoding": "bytes",
        "label": "string",
        "numberOfBytes": "32"
      },
      "t_struct(Listing)3213_storage": {
        "encoding": "inplace",
        "label": "struct FruitTreeNFT.Listing",
        "members": [
          {
            "astId": 3204,
            "contract": "contracts/TreeNFT.sol:FruitTreeNFT",
            "label": "tokenId",
            "offset": 0,
            "slot": "0",
            "type": "t_uint256"
          },
          {
            "astId": 3206,
            "contract": "contracts/TreeNFT.sol:FruitTreeNFT",
            "label": "seller",
            "offset": 0,
            "slot": "1",
            "type": "t_address"
          },
          {
            "astId": 3208,
            "contract": "contracts/TreeNFT.sol:FruitTreeNFT",
            "label": "listingTime",
            "offset": 0,
            "slot": "2",
            "type": "t_uint256"
          },
          {
            "astId": 3210,
            "contract": "contracts/TreeNFT.sol:FruitTreeNFT",
            "label": "price",
            "offset": 0,
            "slot": "3",
            "type": "t_uint256"
          },
          {
            "astId": 3212,
            "contract": "contracts/TreeNFT.sol:FruitTreeNFT",
            "label": "isActive",
            "offset": 0,
            "slot": "4",
            "type": "t_bool"
          }
        ],
        "numberOfBytes": "160"
      },
      "t_struct(Tree)3202_storage": {
        "encoding": "inplace",
        "label": "struct FruitTreeNFT.Tree",
        "members": [
          {
            "astId": 3195,
            "contract": "contracts/TreeNFT.sol:FruitTreeNFT",
            "label": "treeType",
            "offset": 0,
            "slot": "0",
            "type": "t_enum(TreeType)3183"
          },
          {
            "astId": 3197,
            "contract": "contracts/TreeNFT.sol:FruitTreeNFT",
            "label": "mintTime",
            "offset": 0,
            "slot": "1",
            "type": "t_uint256"
          },
          {
            "astId": 3199,
            "contract": "contracts/TreeNFT.sol:FruitTreeNFT",
            "label": "initialPrice",
            "offset": 0,
            "slot": "2",
            "type": "t_uint256"
          },
          {
            "astId": 3201,
            "contract": "contracts/TreeNFT.sol:FruitTreeNFT",
            "label": "owner",
            "offset": 0,
            "slot": "3",
            "type": "t_address"
          }
        ],
        "numberOfBytes": "128"
      },
      "t_struct(TreeInfo)3192_storage": {
        "encoding": "inplace",
        "label": "struct FruitTreeNFT.TreeInfo",
        "members": [
          {
            "astId": 3185,
            "contract": "contracts/TreeNFT.sol:FruitTreeNFT",
            "label": "name",
            "offset": 0,
            "slot": "0",
            "type": "t_string_storage"
          },
          {
            "astId": 3187,
            "contract": "contracts/TreeNFT.sol:FruitTreeNFT",
            "label": "basePrice",
            "offset": 0,
            "slot": "1",
            "type": "t_uint256"
          },
          {
            "astId": 3189,
            "contract": "contracts/TreeNFT.sol:FruitTreeNFT",
            "label": "baseAppreciation",
            "offset": 0,
            "slot": "2",
            "type": "t_uint256"
          },
          {
            "astId": 3191,
            "contract": "contracts/TreeNFT.sol:FruitTreeNFT",
            "label": "produceAppreciation",
            "offset": 0,
            "slot": "3",
            "type": "t_uint256"
          }
        ],
        "numberOfBytes": "128"
      },
      "t_uint256": {
        "encoding": "inplace",
        "label": "uint256",
        "numberOfBytes": "32"
      }
    }
  }
}